{"abi":[{"inputs":[{"internalType":"uint256","name":"minimum","type":"uint256"},{"internalType":"address","name":"_manager","type":"address"}],"stateMutability":"nonpayable","type":"constructor"},{"inputs":[{"internalType":"uint256","name":"index","type":"uint256"}],"name":"approbeRequest","outputs":[],"stateMutability":"nonpayable","type":"function"},{"inputs":[{"internalType":"address","name":"","type":"address"}],"name":"approvers","outputs":[{"internalType":"bool","name":"","type":"bool"}],"stateMutability":"view","type":"function"},{"inputs":[],"name":"approversCount","outputs":[{"internalType":"uint256","name":"","type":"uint256"}],"stateMutability":"view","type":"function"},{"inputs":[],"name":"contribute","outputs":[],"stateMutability":"payable","type":"function"},{"inputs":[{"internalType":"string","name":"description","type":"string"},{"internalType":"uint256","name":"value","type":"uint256"},{"internalType":"address","name":"recipient","type":"address"}],"name":"createRequest","outputs":[],"stateMutability":"nonpayable","type":"function"},{"inputs":[{"internalType":"uint256","name":"index","type":"uint256"}],"name":"finalizeRequest","outputs":[],"stateMutability":"nonpayable","type":"function"},{"inputs":[],"name":"getRequestCount","outputs":[{"internalType":"uint256","name":"","type":"uint256"}],"stateMutability":"view","type":"function"},{"inputs":[],"name":"getSummary","outputs":[{"internalType":"uint256","name":"","type":"uint256"},{"internalType":"uint256","name":"","type":"uint256"},{"internalType":"uint256","name":"","type":"uint256"},{"internalType":"uint256","name":"","type":"uint256"},{"internalType":"address","name":"","type":"address"}],"stateMutability":"view","type":"function"},{"inputs":[],"name":"manager","outputs":[{"internalType":"address","name":"","type":"address"}],"stateMutability":"view","type":"function"},{"inputs":[],"name":"minimumContribution","outputs":[{"internalType":"uint256","name":"","type":"uint256"}],"stateMutability":"view","type":"function"},{"inputs":[{"internalType":"uint256","name":"","type":"uint256"}],"name":"requests","outputs":[{"internalType":"string","name":"description","type":"string"},{"internalType":"uint256","name":"value","type":"uint256"},{"internalType":"address","name":"recipient","type":"address"},{"internalType":"bool","name":"complete","type":"bool"},{"internalType":"uint256","name":"approvalCount","type":"uint256"}],"stateMutability":"view","type":"function"}],"devdoc":{"kind":"dev","methods":{},"version":1},"evm":{"assembly":"    /* \"Campaign.sol\":1268:5128  contract Campaign{... */\n  mstore(0x40, 0x80)\n    /* \"Campaign.sol\":2359:2476  constructor(uint minimum, address _manager){... */\n  callvalue\n  dup1\n  iszero\n  tag_1\n  jumpi\n  0x00\n  dup1\n  revert\ntag_1:\n  pop\n  mload(0x40)\n  sub(codesize, bytecodeSize)\n  dup1\n  bytecodeSize\n  dup4\n  codecopy\n  dup2\n  dup2\n  add\n  0x40\n  mstore\n  dup2\n  add\n  swap1\n  tag_2\n  swap2\n  swap1\n  tag_3\n  jump\t// in\ntag_2:\n    /* \"Campaign.sol\":2422:2430  _manager */\n  dup1\n    /* \"Campaign.sol\":2412:2419  manager */\n  0x02\n  0x00\n    /* \"Campaign.sol\":2412:2430  manager = _manager */\n  0x0100\n  exp\n  dup2\n  sload\n  dup2\n  0xffffffffffffffffffffffffffffffffffffffff\n  mul\n  not\n  and\n  swap1\n  dup4\n  0xffffffffffffffffffffffffffffffffffffffff\n  and\n  mul\n  or\n  swap1\n  sstore\n  pop\n    /* \"Campaign.sol\":2462:2469  minimum */\n  dup2\n    /* \"Campaign.sol\":2440:2459  minimumContribution */\n  0x03\n    /* \"Campaign.sol\":2440:2469  minimumContribution = minimum */\n  dup2\n  swap1\n  sstore\n  pop\n    /* \"Campaign.sol\":2359:2476  constructor(uint minimum, address _manager){... */\n  pop\n  pop\n    /* \"Campaign.sol\":1268:5128  contract Campaign{... */\n  jump(tag_6)\n    /* \"#utility.yul\":88:205   */\ntag_8:\n    /* \"#utility.yul\":197:198   */\n  0x00\n    /* \"#utility.yul\":194:195   */\n  dup1\n    /* \"#utility.yul\":187:199   */\n  revert\n    /* \"#utility.yul\":334:411   */\ntag_10:\n    /* \"#utility.yul\":371:378   */\n  0x00\n    /* \"#utility.yul\":400:405   */\n  dup2\n    /* \"#utility.yul\":389:405   */\n  swap1\n  pop\n    /* \"#utility.yul\":334:411   */\n  swap2\n  swap1\n  pop\n  jump\t// out\n    /* \"#utility.yul\":417:539   */\ntag_11:\n    /* \"#utility.yul\":490:514   */\n  tag_23\n    /* \"#utility.yul\":508:513   */\n  dup2\n    /* \"#utility.yul\":490:514   */\n  tag_10\n  jump\t// in\ntag_23:\n    /* \"#utility.yul\":483:488   */\n  dup2\n    /* \"#utility.yul\":480:515   */\n  eq\n    /* \"#utility.yul\":470:533   */\n  tag_24\n  jumpi\n    /* \"#utility.yul\":529:530   */\n  0x00\n    /* \"#utility.yul\":526:527   */\n  dup1\n    /* \"#utility.yul\":519:531   */\n  revert\n    /* \"#utility.yul\":470:533   */\ntag_24:\n    /* \"#utility.yul\":417:539   */\n  pop\n  jump\t// out\n    /* \"#utility.yul\":545:688   */\ntag_12:\n    /* \"#utility.yul\":602:607   */\n  0x00\n    /* \"#utility.yul\":633:639   */\n  dup2\n    /* \"#utility.yul\":627:640   */\n  mload\n    /* \"#utility.yul\":618:640   */\n  swap1\n  pop\n    /* \"#utility.yul\":649:682   */\n  tag_26\n    /* \"#utility.yul\":676:681   */\n  dup2\n    /* \"#utility.yul\":649:682   */\n  tag_11\n  jump\t// in\ntag_26:\n    /* \"#utility.yul\":545:688   */\n  swap3\n  swap2\n  pop\n  pop\n  jump\t// out\n    /* \"#utility.yul\":694:820   */\ntag_13:\n    /* \"#utility.yul\":731:738   */\n  0x00\n    /* \"#utility.yul\":771:813   */\n  0xffffffffffffffffffffffffffffffffffffffff\n    /* \"#utility.yul\":764:769   */\n  dup3\n    /* \"#utility.yul\":760:814   */\n  and\n    /* \"#utility.yul\":749:814   */\n  swap1\n  pop\n    /* \"#utility.yul\":694:820   */\n  swap2\n  swap1\n  pop\n  jump\t// out\n    /* \"#utility.yul\":826:922   */\ntag_14:\n    /* \"#utility.yul\":863:870   */\n  0x00\n    /* \"#utility.yul\":892:916   */\n  tag_29\n    /* \"#utility.yul\":910:915   */\n  dup3\n    /* \"#utility.yul\":892:916   */\n  tag_13\n  jump\t// in\ntag_29:\n    /* \"#utility.yul\":881:916   */\n  swap1\n  pop\n    /* \"#utility.yul\":826:922   */\n  swap2\n  swap1\n  pop\n  jump\t// out\n    /* \"#utility.yul\":928:1050   */\ntag_15:\n    /* \"#utility.yul\":1001:1025   */\n  tag_31\n    /* \"#utility.yul\":1019:1024   */\n  dup2\n    /* \"#utility.yul\":1001:1025   */\n  tag_14\n  jump\t// in\ntag_31:\n    /* \"#utility.yul\":994:999   */\n  dup2\n    /* \"#utility.yul\":991:1026   */\n  eq\n    /* \"#utility.yul\":981:1044   */\n  tag_32\n  jumpi\n    /* \"#utility.yul\":1040:1041   */\n  0x00\n    /* \"#utility.yul\":1037:1038   */\n  dup1\n    /* \"#utility.yul\":1030:1042   */\n  revert\n    /* \"#utility.yul\":981:1044   */\ntag_32:\n    /* \"#utility.yul\":928:1050   */\n  pop\n  jump\t// out\n    /* \"#utility.yul\":1056:1199   */\ntag_16:\n    /* \"#utility.yul\":1113:1118   */\n  0x00\n    /* \"#utility.yul\":1144:1150   */\n  dup2\n    /* \"#utility.yul\":1138:1151   */\n  mload\n    /* \"#utility.yul\":1129:1151   */\n  swap1\n  pop\n    /* \"#utility.yul\":1160:1193   */\n  tag_34\n    /* \"#utility.yul\":1187:1192   */\n  dup2\n    /* \"#utility.yul\":1160:1193   */\n  tag_15\n  jump\t// in\ntag_34:\n    /* \"#utility.yul\":1056:1199   */\n  swap3\n  swap2\n  pop\n  pop\n  jump\t// out\n    /* \"#utility.yul\":1205:1712   */\ntag_3:\n    /* \"#utility.yul\":1284:1290   */\n  0x00\n    /* \"#utility.yul\":1292:1298   */\n  dup1\n    /* \"#utility.yul\":1341:1343   */\n  0x40\n    /* \"#utility.yul\":1329:1338   */\n  dup4\n    /* \"#utility.yul\":1320:1327   */\n  dup6\n    /* \"#utility.yul\":1316:1339   */\n  sub\n    /* \"#utility.yul\":1312:1344   */\n  slt\n    /* \"#utility.yul\":1309:1428   */\n  iszero\n  tag_36\n  jumpi\n    /* \"#utility.yul\":1347:1426   */\n  tag_37\n  tag_8\n  jump\t// in\ntag_37:\n    /* \"#utility.yul\":1309:1428   */\ntag_36:\n    /* \"#utility.yul\":1467:1468   */\n  0x00\n    /* \"#utility.yul\":1492:1556   */\n  tag_38\n    /* \"#utility.yul\":1548:1555   */\n  dup6\n    /* \"#utility.yul\":1539:1545   */\n  dup3\n    /* \"#utility.yul\":1528:1537   */\n  dup7\n    /* \"#utility.yul\":1524:1546   */\n  add\n    /* \"#utility.yul\":1492:1556   */\n  tag_12\n  jump\t// in\ntag_38:\n    /* \"#utility.yul\":1482:1556   */\n  swap3\n  pop\n    /* \"#utility.yul\":1438:1566   */\n  pop\n    /* \"#utility.yul\":1605:1607   */\n  0x20\n    /* \"#utility.yul\":1631:1695   */\n  tag_39\n    /* \"#utility.yul\":1687:1694   */\n  dup6\n    /* \"#utility.yul\":1678:1684   */\n  dup3\n    /* \"#utility.yul\":1667:1676   */\n  dup7\n    /* \"#utility.yul\":1663:1685   */\n  add\n    /* \"#utility.yul\":1631:1695   */\n  tag_16\n  jump\t// in\ntag_39:\n    /* \"#utility.yul\":1621:1695   */\n  swap2\n  pop\n    /* \"#utility.yul\":1576:1705   */\n  pop\n    /* \"#utility.yul\":1205:1712   */\n  swap3\n  pop\n  swap3\n  swap1\n  pop\n  jump\t// out\n    /* \"Campaign.sol\":1268:5128  contract Campaign{... */\ntag_6:\n  dataSize(sub_0)\n  dup1\n  dataOffset(sub_0)\n  0x00\n  codecopy\n  0x00\n  return\nstop\n\nsub_0: assembly {\n        /* \"Campaign.sol\":1268:5128  contract Campaign{... */\n      mstore(0x40, 0x80)\n      jumpi(tag_1, lt(calldatasize, 0x04))\n      shr(0xe0, calldataload(0x00))\n      dup1\n      0x81d12c58\n      gt\n      tag_13\n      jumpi\n      dup1\n      0x81d12c58\n      eq\n      tag_7\n      jumpi\n      dup1\n      0x82fde093\n      eq\n      tag_8\n      jumpi\n      dup1\n      0x8a9cfd55\n      eq\n      tag_9\n      jumpi\n      dup1\n      0x937e09b1\n      eq\n      tag_10\n      jumpi\n      dup1\n      0x984261ae\n      eq\n      tag_11\n      jumpi\n      dup1\n      0xd7bb99ba\n      eq\n      tag_12\n      jumpi\n      jump(tag_1)\n    tag_13:\n      dup1\n      0x03441006\n      eq\n      tag_2\n      jumpi\n      dup1\n      0x0a144391\n      eq\n      tag_3\n      jumpi\n      dup1\n      0x3fad1834\n      eq\n      tag_4\n      jumpi\n      dup1\n      0x4051ddac\n      eq\n      tag_5\n      jumpi\n      dup1\n      0x481c6a75\n      eq\n      tag_6\n      jumpi\n    tag_1:\n      0x00\n      dup1\n      revert\n        /* \"Campaign.sol\":4286:4762  function finalizeRequest(uint index) public restricted{... */\n    tag_2:\n      callvalue\n      dup1\n      iszero\n      tag_14\n      jumpi\n      0x00\n      dup1\n      revert\n    tag_14:\n      pop\n      tag_15\n      0x04\n      dup1\n      calldatasize\n      sub\n      dup2\n      add\n      swap1\n      tag_16\n      swap2\n      swap1\n      tag_17\n      jump\t// in\n    tag_16:\n      tag_18\n      jump\t// in\n    tag_15:\n      stop\n        /* \"Campaign.sol\":2114:2157  mapping( address => bool ) public approvers */\n    tag_3:\n      callvalue\n      dup1\n      iszero\n      tag_19\n      jumpi\n      0x00\n      dup1\n      revert\n    tag_19:\n      pop\n      tag_20\n      0x04\n      dup1\n      calldatasize\n      sub\n      dup2\n      add\n      swap1\n      tag_21\n      swap2\n      swap1\n      tag_22\n      jump\t// in\n    tag_21:\n      tag_23\n      jump\t// in\n    tag_20:\n      mload(0x40)\n      tag_24\n      swap2\n      swap1\n      tag_25\n      jump\t// in\n    tag_24:\n      mload(0x40)\n      dup1\n      swap2\n      sub\n      swap1\n      return\n        /* \"Campaign.sol\":5037:5125  function getRequestCount() public view returns(uint) {... */\n    tag_4:\n      callvalue\n      dup1\n      iszero\n      tag_26\n      jumpi\n      0x00\n      dup1\n      revert\n    tag_26:\n      pop\n      tag_27\n      tag_28\n      jump\t// in\n    tag_27:\n      mload(0x40)\n      tag_29\n      swap2\n      swap1\n      tag_30\n      jump\t// in\n    tag_29:\n      mload(0x40)\n      dup1\n      swap2\n      sub\n      swap1\n      return\n        /* \"Campaign.sol\":4768:5031  function getSummary() public view returns(... */\n    tag_5:\n      callvalue\n      dup1\n      iszero\n      tag_31\n      jumpi\n      0x00\n      dup1\n      revert\n    tag_31:\n      pop\n      tag_32\n      tag_33\n      jump\t// in\n    tag_32:\n      mload(0x40)\n      tag_34\n      swap6\n      swap5\n      swap4\n      swap3\n      swap2\n      swap1\n      tag_35\n      jump\t// in\n    tag_34:\n      mload(0x40)\n      dup1\n      swap2\n      sub\n      swap1\n      return\n        /* \"Campaign.sol\":1835:1857  address public manager */\n    tag_6:\n      callvalue\n      dup1\n      iszero\n      tag_36\n      jumpi\n      0x00\n      dup1\n      revert\n    tag_36:\n      pop\n      tag_37\n      tag_38\n      jump\t// in\n    tag_37:\n      mload(0x40)\n      tag_39\n      swap2\n      swap1\n      tag_40\n      jump\t// in\n    tag_39:\n      mload(0x40)\n      dup1\n      swap2\n      sub\n      swap1\n      return\n        /* \"Campaign.sol\":1787:1828  mapping (uint => Request) public requests */\n    tag_7:\n      callvalue\n      dup1\n      iszero\n      tag_41\n      jumpi\n      0x00\n      dup1\n      revert\n    tag_41:\n      pop\n      tag_42\n      0x04\n      dup1\n      calldatasize\n      sub\n      dup2\n      add\n      swap1\n      tag_43\n      swap2\n      swap1\n      tag_17\n      jump\t// in\n    tag_43:\n      tag_44\n      jump\t// in\n    tag_42:\n      mload(0x40)\n      tag_45\n      swap6\n      swap5\n      swap4\n      swap3\n      swap2\n      swap1\n      tag_46\n      jump\t// in\n    tag_45:\n      mload(0x40)\n      dup1\n      swap2\n      sub\n      swap1\n      return\n        /* \"Campaign.sol\":2209:2235  uint public approversCount */\n    tag_8:\n      callvalue\n      dup1\n      iszero\n      tag_47\n      jumpi\n      0x00\n      dup1\n      revert\n    tag_47:\n      pop\n      tag_48\n      tag_49\n      jump\t// in\n    tag_48:\n      mload(0x40)\n      tag_50\n      swap2\n      swap1\n      tag_30\n      jump\t// in\n    tag_50:\n      mload(0x40)\n      dup1\n      swap2\n      sub\n      swap1\n      return\n        /* \"Campaign.sol\":3225:3640  function createRequest(string memory description, uint value, address recipient) ... */\n    tag_9:\n      callvalue\n      dup1\n      iszero\n      tag_51\n      jumpi\n      0x00\n      dup1\n      revert\n    tag_51:\n      pop\n      tag_52\n      0x04\n      dup1\n      calldatasize\n      sub\n      dup2\n      add\n      swap1\n      tag_53\n      swap2\n      swap1\n      tag_54\n      jump\t// in\n    tag_53:\n      tag_55\n      jump\t// in\n    tag_52:\n      stop\n        /* \"Campaign.sol\":1863:1894  uint public minimumContribution */\n    tag_10:\n      callvalue\n      dup1\n      iszero\n      tag_56\n      jumpi\n      0x00\n      dup1\n      revert\n    tag_56:\n      pop\n      tag_57\n      tag_58\n      jump\t// in\n    tag_57:\n      mload(0x40)\n      tag_59\n      swap2\n      swap1\n      tag_30\n      jump\t// in\n    tag_59:\n      mload(0x40)\n      dup1\n      swap2\n      sub\n      swap1\n      return\n        /* \"Campaign.sol\":3646:4280  function approbeRequest(uint index) public{... */\n    tag_11:\n      callvalue\n      dup1\n      iszero\n      tag_60\n      jumpi\n      0x00\n      dup1\n      revert\n    tag_60:\n      pop\n      tag_61\n      0x04\n      dup1\n      calldatasize\n      sub\n      dup2\n      add\n      swap1\n      tag_62\n      swap2\n      swap1\n      tag_17\n      jump\t// in\n    tag_62:\n      tag_63\n      jump\t// in\n    tag_61:\n      stop\n        /* \"Campaign.sol\":2482:2674  function contribute() public payable{... */\n    tag_12:\n      tag_64\n      tag_65\n      jump\t// in\n    tag_64:\n      stop\n        /* \"Campaign.sol\":4286:4762  function finalizeRequest(uint index) public restricted{... */\n    tag_18:\n        /* \"Campaign.sol\":2300:2307  manager */\n      0x02\n      0x00\n      swap1\n      sload\n      swap1\n      0x0100\n      exp\n      swap1\n      div\n      0xffffffffffffffffffffffffffffffffffffffff\n      and\n        /* \"Campaign.sol\":2286:2307  msg.sender == manager */\n      0xffffffffffffffffffffffffffffffffffffffff\n      and\n        /* \"Campaign.sol\":2286:2296  msg.sender */\n      caller\n        /* \"Campaign.sol\":2286:2307  msg.sender == manager */\n      0xffffffffffffffffffffffffffffffffffffffff\n      and\n      eq\n        /* \"Campaign.sol\":2277:2335  require( msg.sender == manager, \"You're not the manager\" ) */\n      tag_67\n      jumpi\n      mload(0x40)\n      0x08c379a000000000000000000000000000000000000000000000000000000000\n      dup2\n      mstore\n      0x04\n      add\n      tag_68\n      swap1\n      tag_69\n      jump\t// in\n    tag_68:\n      mload(0x40)\n      dup1\n      swap2\n      sub\n      swap1\n      revert\n    tag_67:\n        /* \"Campaign.sol\":4350:4373  Request storage request */\n      0x00\n        /* \"Campaign.sol\":4376:4384  requests */\n      0x01\n        /* \"Campaign.sol\":4376:4393  requests[ index ] */\n      0x00\n        /* \"Campaign.sol\":4386:4391  index */\n      dup4\n        /* \"Campaign.sol\":4376:4393  requests[ index ] */\n      dup2\n      mstore\n      0x20\n      add\n      swap1\n      dup2\n      mstore\n      0x20\n      add\n      0x00\n      keccak256\n        /* \"Campaign.sol\":4350:4393  Request storage request = requests[ index ] */\n      swap1\n      pop\n        /* \"Campaign.sol\":4413:4420  request */\n      dup1\n        /* \"Campaign.sol\":4413:4429  request.complete */\n      0x02\n      add\n      0x14\n      swap1\n      sload\n      swap1\n      0x0100\n      exp\n      swap1\n      div\n      0xff\n      and\n        /* \"Campaign.sol\":4412:4429  !request.complete */\n      iszero\n        /* \"Campaign.sol\":4403:4477  require( !request.complete, \"The request is already marked as completed\" ) */\n      tag_71\n      jumpi\n      mload(0x40)\n      0x08c379a000000000000000000000000000000000000000000000000000000000\n      dup2\n      mstore\n      0x04\n      add\n      tag_72\n      swap1\n      tag_73\n      jump\t// in\n    tag_72:\n      mload(0x40)\n      dup1\n      swap2\n      sub\n      swap1\n      revert\n    tag_71:\n        /* \"Campaign.sol\":4536:4537  2 */\n      0x02\n        /* \"Campaign.sol\":4521:4535  approversCount */\n      sload(0x05)\n        /* \"Campaign.sol\":4521:4537  approversCount/2 */\n      tag_74\n      swap2\n      swap1\n      tag_75\n      jump\t// in\n    tag_74:\n        /* \"Campaign.sol\":4496:4503  request */\n      dup2\n        /* \"Campaign.sol\":4496:4517  request.approvalCount */\n      0x03\n      add\n      sload\n        /* \"Campaign.sol\":4496:4540  request.approvalCount > (approversCount/2  ) */\n      gt\n        /* \"Campaign.sol\":4487:4581  require( request.approvalCount > (approversCount/2  ), \"You don't have enough approvers yet\" ) */\n      tag_76\n      jumpi\n      mload(0x40)\n      0x08c379a000000000000000000000000000000000000000000000000000000000\n      dup2\n      mstore\n      0x04\n      add\n      tag_77\n      swap1\n      tag_78\n      jump\t// in\n    tag_77:\n      mload(0x40)\n      dup1\n      swap2\n      sub\n      swap1\n      revert\n    tag_76:\n        /* \"Campaign.sol\":4680:4687  request */\n      dup1\n        /* \"Campaign.sol\":4680:4697  request.recipient */\n      0x02\n      add\n      0x00\n      swap1\n      sload\n      swap1\n      0x0100\n      exp\n      swap1\n      div\n      0xffffffffffffffffffffffffffffffffffffffff\n      and\n        /* \"Campaign.sol\":4672:4707  payable(request.recipient).transfer */\n      0xffffffffffffffffffffffffffffffffffffffff\n      and\n        /* \"Campaign.sol\":4672:4722  payable(request.recipient).transfer(request.value) */\n      0x08fc\n        /* \"Campaign.sol\":4708:4715  request */\n      dup3\n        /* \"Campaign.sol\":4708:4721  request.value */\n      0x01\n      add\n      sload\n        /* \"Campaign.sol\":4672:4722  payable(request.recipient).transfer(request.value) */\n      swap1\n      dup2\n      iszero\n      mul\n      swap1\n      mload(0x40)\n      0x00\n      mload(0x40)\n      dup1\n      dup4\n      sub\n      dup2\n      dup6\n      dup9\n      dup9\n      call\n      swap4\n      pop\n      pop\n      pop\n      pop\n      iszero\n      dup1\n      iszero\n      tag_80\n      jumpi\n      returndatasize\n      0x00\n      dup1\n      returndatacopy\n      revert(0x00, returndatasize)\n    tag_80:\n      pop\n        /* \"Campaign.sol\":4751:4755  true */\n      0x01\n        /* \"Campaign.sol\":4732:4739  request */\n      dup2\n        /* \"Campaign.sol\":4732:4748  request.complete */\n      0x02\n      add\n      0x14\n        /* \"Campaign.sol\":4732:4755  request.complete = true */\n      0x0100\n      exp\n      dup2\n      sload\n      dup2\n      0xff\n      mul\n      not\n      and\n      swap1\n      dup4\n      iszero\n      iszero\n      mul\n      or\n      swap1\n      sstore\n      pop\n        /* \"Campaign.sol\":4340:4762  {... */\n      pop\n        /* \"Campaign.sol\":4286:4762  function finalizeRequest(uint index) public restricted{... */\n      pop\n      jump\t// out\n        /* \"Campaign.sol\":2114:2157  mapping( address => bool ) public approvers */\n    tag_23:\n      mstore(0x20, 0x04)\n      dup1\n      0x00\n      mstore\n      keccak256(0x00, 0x40)\n      0x00\n      swap2\n      pop\n      sload\n      swap1\n      0x0100\n      exp\n      swap1\n      div\n      0xff\n      and\n      dup2\n      jump\t// out\n        /* \"Campaign.sol\":5037:5125  function getRequestCount() public view returns(uint) {... */\n    tag_28:\n        /* \"Campaign.sol\":5084:5088  uint */\n      0x00\n        /* \"Campaign.sol\":5107:5118  numRequests */\n      dup1\n      sload\n        /* \"Campaign.sol\":5100:5118  return numRequests */\n      swap1\n      pop\n        /* \"Campaign.sol\":5037:5125  function getRequestCount() public view returns(uint) {... */\n      swap1\n      jump\t// out\n        /* \"Campaign.sol\":4768:5031  function getSummary() public view returns(... */\n    tag_33:\n        /* \"Campaign.sol\":4819:4823  uint */\n      0x00\n        /* \"Campaign.sol\":4825:4829  uint */\n      dup1\n        /* \"Campaign.sol\":4831:4835  uint */\n      0x00\n        /* \"Campaign.sol\":4837:4841  uint */\n      dup1\n        /* \"Campaign.sol\":4843:4850  address */\n      0x00\n        /* \"Campaign.sol\":4886:4905  minimumContribution */\n      sload(0x03)\n        /* \"Campaign.sol\":4919:4940  address(this).balance */\n      selfbalance\n        /* \"Campaign.sol\":4954:4965  numRequests */\n      sload(0x00)\n        /* \"Campaign.sol\":4979:4993  approversCount */\n      sload(0x05)\n        /* \"Campaign.sol\":5007:5014  manager */\n      0x02\n      0x00\n      swap1\n      sload\n      swap1\n      0x0100\n      exp\n      swap1\n      div\n      0xffffffffffffffffffffffffffffffffffffffff\n      and\n        /* \"Campaign.sol\":4866:5024  return(... */\n      swap5\n      pop\n      swap5\n      pop\n      swap5\n      pop\n      swap5\n      pop\n      swap5\n      pop\n        /* \"Campaign.sol\":4768:5031  function getSummary() public view returns(... */\n      swap1\n      swap2\n      swap3\n      swap4\n      swap5\n      jump\t// out\n        /* \"Campaign.sol\":1835:1857  address public manager */\n    tag_38:\n      0x02\n      0x00\n      swap1\n      sload\n      swap1\n      0x0100\n      exp\n      swap1\n      div\n      0xffffffffffffffffffffffffffffffffffffffff\n      and\n      dup2\n      jump\t// out\n        /* \"Campaign.sol\":1787:1828  mapping (uint => Request) public requests */\n    tag_44:\n      mstore(0x20, 0x01)\n      dup1\n      0x00\n      mstore\n      keccak256(0x00, 0x40)\n      0x00\n      swap2\n      pop\n      swap1\n      pop\n      dup1\n      0x00\n      add\n      dup1\n      sload\n      tag_83\n      swap1\n      tag_84\n      jump\t// in\n    tag_83:\n      dup1\n      0x1f\n      add\n      0x20\n      dup1\n      swap2\n      div\n      mul\n      0x20\n      add\n      mload(0x40)\n      swap1\n      dup2\n      add\n      0x40\n      mstore\n      dup1\n      swap3\n      swap2\n      swap1\n      dup2\n      dup2\n      mstore\n      0x20\n      add\n      dup3\n      dup1\n      sload\n      tag_85\n      swap1\n      tag_84\n      jump\t// in\n    tag_85:\n      dup1\n      iszero\n      tag_86\n      jumpi\n      dup1\n      0x1f\n      lt\n      tag_87\n      jumpi\n      0x0100\n      dup1\n      dup4\n      sload\n      div\n      mul\n      dup4\n      mstore\n      swap2\n      0x20\n      add\n      swap2\n      jump(tag_86)\n    tag_87:\n      dup3\n      add\n      swap2\n      swap1\n      0x00\n      mstore\n      keccak256(0x00, 0x20)\n      swap1\n    tag_88:\n      dup2\n      sload\n      dup2\n      mstore\n      swap1\n      0x01\n      add\n      swap1\n      0x20\n      add\n      dup1\n      dup4\n      gt\n      tag_88\n      jumpi\n      dup3\n      swap1\n      sub\n      0x1f\n      and\n      dup3\n      add\n      swap2\n    tag_86:\n      pop\n      pop\n      pop\n      pop\n      pop\n      swap1\n      dup1\n      0x01\n      add\n      sload\n      swap1\n      dup1\n      0x02\n      add\n      0x00\n      swap1\n      sload\n      swap1\n      0x0100\n      exp\n      swap1\n      div\n      0xffffffffffffffffffffffffffffffffffffffff\n      and\n      swap1\n      dup1\n      0x02\n      add\n      0x14\n      swap1\n      sload\n      swap1\n      0x0100\n      exp\n      swap1\n      div\n      0xff\n      and\n      swap1\n      dup1\n      0x03\n      add\n      sload\n      swap1\n      pop\n      dup6\n      jump\t// out\n        /* \"Campaign.sol\":2209:2235  uint public approversCount */\n    tag_49:\n      sload(0x05)\n      dup2\n      jump\t// out\n        /* \"Campaign.sol\":3225:3640  function createRequest(string memory description, uint value, address recipient) ... */\n    tag_55:\n        /* \"Campaign.sol\":2300:2307  manager */\n      0x02\n      0x00\n      swap1\n      sload\n      swap1\n      0x0100\n      exp\n      swap1\n      div\n      0xffffffffffffffffffffffffffffffffffffffff\n      and\n        /* \"Campaign.sol\":2286:2307  msg.sender == manager */\n      0xffffffffffffffffffffffffffffffffffffffff\n      and\n        /* \"Campaign.sol\":2286:2296  msg.sender */\n      caller\n        /* \"Campaign.sol\":2286:2307  msg.sender == manager */\n      0xffffffffffffffffffffffffffffffffffffffff\n      and\n      eq\n        /* \"Campaign.sol\":2277:2335  require( msg.sender == manager, \"You're not the manager\" ) */\n      tag_90\n      jumpi\n      mload(0x40)\n      0x08c379a000000000000000000000000000000000000000000000000000000000\n      dup2\n      mstore\n      0x04\n      add\n      tag_91\n      swap1\n      tag_69\n      jump\t// in\n    tag_91:\n      mload(0x40)\n      dup1\n      swap2\n      sub\n      swap1\n      revert\n    tag_90:\n        /* \"Campaign.sol\":3349:3375  Request storage newRequest */\n      0x00\n        /* \"Campaign.sol\":3378:3386  requests */\n      0x01\n        /* \"Campaign.sol\":3378:3401  requests[ numRequests ] */\n      0x00\n        /* \"Campaign.sol\":3388:3399  numRequests */\n      dup1\n      sload\n        /* \"Campaign.sol\":3378:3401  requests[ numRequests ] */\n      dup2\n      mstore\n      0x20\n      add\n      swap1\n      dup2\n      mstore\n      0x20\n      add\n      0x00\n      keccak256\n        /* \"Campaign.sol\":3349:3401  Request storage newRequest = requests[ numRequests ] */\n      swap1\n      pop\n        /* \"Campaign.sol\":3436:3447  description */\n      dup4\n        /* \"Campaign.sol\":3411:3421  newRequest */\n      dup2\n        /* \"Campaign.sol\":3411:3433  newRequest.description */\n      0x00\n      add\n        /* \"Campaign.sol\":3411:3447  newRequest.description = description */\n      swap1\n      dup2\n      tag_93\n      swap2\n      swap1\n      tag_94\n      jump\t// in\n    tag_93:\n      pop\n        /* \"Campaign.sol\":3482:3487  value */\n      dup3\n        /* \"Campaign.sol\":3457:3467  newRequest */\n      dup2\n        /* \"Campaign.sol\":3457:3473  newRequest.value */\n      0x01\n      add\n        /* \"Campaign.sol\":3457:3487  newRequest.value       = value */\n      dup2\n      swap1\n      sstore\n      pop\n        /* \"Campaign.sol\":3522:3531  recipient */\n      dup2\n        /* \"Campaign.sol\":3497:3507  newRequest */\n      dup2\n        /* \"Campaign.sol\":3497:3517  newRequest.recipient */\n      0x02\n      add\n      0x00\n        /* \"Campaign.sol\":3497:3531  newRequest.recipient   = recipient */\n      0x0100\n      exp\n      dup2\n      sload\n      dup2\n      0xffffffffffffffffffffffffffffffffffffffff\n      mul\n      not\n      and\n      swap1\n      dup4\n      0xffffffffffffffffffffffffffffffffffffffff\n      and\n      mul\n      or\n      swap1\n      sstore\n      pop\n        /* \"Campaign.sol\":3566:3571  false */\n      0x00\n        /* \"Campaign.sol\":3541:3551  newRequest */\n      dup2\n        /* \"Campaign.sol\":3541:3560  newRequest.complete */\n      0x02\n      add\n      0x14\n        /* \"Campaign.sol\":3541:3571  newRequest.complete    = false */\n      0x0100\n      exp\n      dup2\n      sload\n      dup2\n      0xff\n      mul\n      not\n      and\n      swap1\n      dup4\n      iszero\n      iszero\n      mul\n      or\n      swap1\n      sstore\n      pop\n        /* \"Campaign.sol\":3608:3609  0 */\n      0x00\n        /* \"Campaign.sol\":3581:3591  newRequest */\n      dup2\n        /* \"Campaign.sol\":3581:3605  newRequest.approvalCount */\n      0x03\n      add\n        /* \"Campaign.sol\":3581:3609  newRequest.approvalCount = 0 */\n      dup2\n      swap1\n      sstore\n      pop\n        /* \"Campaign.sol\":3620:3631  numRequests */\n      0x00\n      dup1\n        /* \"Campaign.sol\":3620:3633  numRequests++ */\n      dup2\n      sload\n      dup1\n      swap3\n      swap2\n      swap1\n      tag_95\n      swap1\n      tag_96\n      jump\t// in\n    tag_95:\n      swap2\n      swap1\n      pop\n      sstore\n      pop\n        /* \"Campaign.sol\":3338:3640  {... */\n      pop\n        /* \"Campaign.sol\":3225:3640  function createRequest(string memory description, uint value, address recipient) ... */\n      pop\n      pop\n      pop\n      jump\t// out\n        /* \"Campaign.sol\":1863:1894  uint public minimumContribution */\n    tag_58:\n      sload(0x03)\n      dup2\n      jump\t// out\n        /* \"Campaign.sol\":3646:4280  function approbeRequest(uint index) public{... */\n    tag_63:\n        /* \"Campaign.sol\":3802:3825  Request storage request */\n      0x00\n        /* \"Campaign.sol\":3828:3836  requests */\n      0x01\n        /* \"Campaign.sol\":3828:3845  requests[ index ] */\n      0x00\n        /* \"Campaign.sol\":3838:3843  index */\n      dup4\n        /* \"Campaign.sol\":3828:3845  requests[ index ] */\n      dup2\n      mstore\n      0x20\n      add\n      swap1\n      dup2\n      mstore\n      0x20\n      add\n      0x00\n      keccak256\n        /* \"Campaign.sol\":3802:3845  Request storage request = requests[ index ] */\n      swap1\n      pop\n        /* \"Campaign.sol\":3902:3911  approvers */\n      0x04\n        /* \"Campaign.sol\":3902:3925  approvers[ msg.sender ] */\n      0x00\n        /* \"Campaign.sol\":3913:3923  msg.sender */\n      caller\n        /* \"Campaign.sol\":3902:3925  approvers[ msg.sender ] */\n      0xffffffffffffffffffffffffffffffffffffffff\n      and\n      0xffffffffffffffffffffffffffffffffffffffff\n      and\n      dup2\n      mstore\n      0x20\n      add\n      swap1\n      dup2\n      mstore\n      0x20\n      add\n      0x00\n      keccak256\n      0x00\n      swap1\n      sload\n      swap1\n      0x0100\n      exp\n      swap1\n      div\n      0xff\n      and\n        /* \"Campaign.sol\":3893:3952  require( approvers[ msg.sender ], \"You are not a donator\" ) */\n      tag_98\n      jumpi\n      mload(0x40)\n      0x08c379a000000000000000000000000000000000000000000000000000000000\n      dup2\n      mstore\n      0x04\n      add\n      tag_99\n      swap1\n      tag_100\n      jump\t// in\n    tag_99:\n      mload(0x40)\n      dup1\n      swap2\n      sub\n      swap1\n      revert\n    tag_98:\n        /* \"Campaign.sol\":4043:4050  request */\n      dup1\n        /* \"Campaign.sol\":4043:4060  request.approvals */\n      0x04\n      add\n        /* \"Campaign.sol\":4043:4074  request.approvals[ msg.sender ] */\n      0x00\n        /* \"Campaign.sol\":4062:4072  msg.sender */\n      caller\n        /* \"Campaign.sol\":4043:4074  request.approvals[ msg.sender ] */\n      0xffffffffffffffffffffffffffffffffffffffff\n      and\n      0xffffffffffffffffffffffffffffffffffffffff\n      and\n      dup2\n      mstore\n      0x20\n      add\n      swap1\n      dup2\n      mstore\n      0x20\n      add\n      0x00\n      keccak256\n      0x00\n      swap1\n      sload\n      swap1\n      0x0100\n      exp\n      swap1\n      div\n      0xff\n      and\n        /* \"Campaign.sol\":4042:4074  !request.approvals[ msg.sender ] */\n      iszero\n        /* \"Campaign.sol\":4033:4113  require( !request.approvals[ msg.sender ], \"You already voted on this request\" ) */\n      tag_101\n      jumpi\n      mload(0x40)\n      0x08c379a000000000000000000000000000000000000000000000000000000000\n      dup2\n      mstore\n      0x04\n      add\n      tag_102\n      swap1\n      tag_103\n      jump\t// in\n    tag_102:\n      mload(0x40)\n      dup1\n      swap2\n      sub\n      swap1\n      revert\n    tag_101:\n        /* \"Campaign.sol\":4236:4240  true */\n      0x01\n        /* \"Campaign.sol\":4202:4209  request */\n      dup2\n        /* \"Campaign.sol\":4202:4219  request.approvals */\n      0x04\n      add\n        /* \"Campaign.sol\":4202:4233  request.approvals[ msg.sender ] */\n      0x00\n        /* \"Campaign.sol\":4221:4231  msg.sender */\n      caller\n        /* \"Campaign.sol\":4202:4233  request.approvals[ msg.sender ] */\n      0xffffffffffffffffffffffffffffffffffffffff\n      and\n      0xffffffffffffffffffffffffffffffffffffffff\n      and\n      dup2\n      mstore\n      0x20\n      add\n      swap1\n      dup2\n      mstore\n      0x20\n      add\n      0x00\n      keccak256\n      0x00\n        /* \"Campaign.sol\":4202:4240  request.approvals[ msg.sender ] = true */\n      0x0100\n      exp\n      dup2\n      sload\n      dup2\n      0xff\n      mul\n      not\n      and\n      swap1\n      dup4\n      iszero\n      iszero\n      mul\n      or\n      swap1\n      sstore\n      pop\n        /* \"Campaign.sol\":4250:4257  request */\n      dup1\n        /* \"Campaign.sol\":4250:4271  request.approvalCount */\n      0x03\n      add\n      0x00\n        /* \"Campaign.sol\":4250:4273  request.approvalCount++ */\n      dup2\n      sload\n      dup1\n      swap3\n      swap2\n      swap1\n      tag_104\n      swap1\n      tag_96\n      jump\t// in\n    tag_104:\n      swap2\n      swap1\n      pop\n      sstore\n      pop\n        /* \"Campaign.sol\":3688:4280  {... */\n      pop\n        /* \"Campaign.sol\":3646:4280  function approbeRequest(uint index) public{... */\n      pop\n      jump\t// out\n        /* \"Campaign.sol\":2482:2674  function contribute() public payable{... */\n    tag_65:\n        /* \"Campaign.sol\":2549:2568  minimumContribution */\n      sload(0x03)\n        /* \"Campaign.sol\":2537:2546  msg.value */\n      callvalue\n        /* \"Campaign.sol\":2537:2568  msg.value > minimumContribution */\n      gt\n        /* \"Campaign.sol\":2528:2594  require( msg.value > minimumContribution, \"Too low contribution\" ) */\n      tag_106\n      jumpi\n      mload(0x40)\n      0x08c379a000000000000000000000000000000000000000000000000000000000\n      dup2\n      mstore\n      0x04\n      add\n      tag_107\n      swap1\n      tag_108\n      jump\t// in\n    tag_107:\n      mload(0x40)\n      dup1\n      swap2\n      sub\n      swap1\n      revert\n    tag_106:\n        /* \"Campaign.sol\":2637:2641  true */\n      0x01\n        /* \"Campaign.sol\":2613:2622  approvers */\n      0x04\n        /* \"Campaign.sol\":2613:2634  approvers[msg.sender] */\n      0x00\n        /* \"Campaign.sol\":2623:2633  msg.sender */\n      caller\n        /* \"Campaign.sol\":2613:2634  approvers[msg.sender] */\n      0xffffffffffffffffffffffffffffffffffffffff\n      and\n      0xffffffffffffffffffffffffffffffffffffffff\n      and\n      dup2\n      mstore\n      0x20\n      add\n      swap1\n      dup2\n      mstore\n      0x20\n      add\n      0x00\n      keccak256\n      0x00\n        /* \"Campaign.sol\":2613:2641  approvers[msg.sender] = true */\n      0x0100\n      exp\n      dup2\n      sload\n      dup2\n      0xff\n      mul\n      not\n      and\n      swap1\n      dup4\n      iszero\n      iszero\n      mul\n      or\n      swap1\n      sstore\n      pop\n        /* \"Campaign.sol\":2651:2665  approversCount */\n      0x05\n      0x00\n        /* \"Campaign.sol\":2651:2667  approversCount++ */\n      dup2\n      sload\n      dup1\n      swap3\n      swap2\n      swap1\n      tag_109\n      swap1\n      tag_96\n      jump\t// in\n    tag_109:\n      swap2\n      swap1\n      pop\n      sstore\n      pop\n        /* \"Campaign.sol\":2482:2674  function contribute() public payable{... */\n      jump\t// out\n        /* \"#utility.yul\":7:82   */\n    tag_110:\n        /* \"#utility.yul\":40:46   */\n      0x00\n        /* \"#utility.yul\":73:75   */\n      0x40\n        /* \"#utility.yul\":67:76   */\n      mload\n        /* \"#utility.yul\":57:76   */\n      swap1\n      pop\n        /* \"#utility.yul\":7:82   */\n      swap1\n      jump\t// out\n        /* \"#utility.yul\":88:205   */\n    tag_111:\n        /* \"#utility.yul\":197:198   */\n      0x00\n        /* \"#utility.yul\":194:195   */\n      dup1\n        /* \"#utility.yul\":187:199   */\n      revert\n        /* \"#utility.yul\":211:328   */\n    tag_112:\n        /* \"#utility.yul\":320:321   */\n      0x00\n        /* \"#utility.yul\":317:318   */\n      dup1\n        /* \"#utility.yul\":310:322   */\n      revert\n        /* \"#utility.yul\":334:411   */\n    tag_113:\n        /* \"#utility.yul\":371:378   */\n      0x00\n        /* \"#utility.yul\":400:405   */\n      dup2\n        /* \"#utility.yul\":389:405   */\n      swap1\n      pop\n        /* \"#utility.yul\":334:411   */\n      swap2\n      swap1\n      pop\n      jump\t// out\n        /* \"#utility.yul\":417:539   */\n    tag_114:\n        /* \"#utility.yul\":490:514   */\n      tag_174\n        /* \"#utility.yul\":508:513   */\n      dup2\n        /* \"#utility.yul\":490:514   */\n      tag_113\n      jump\t// in\n    tag_174:\n        /* \"#utility.yul\":483:488   */\n      dup2\n        /* \"#utility.yul\":480:515   */\n      eq\n        /* \"#utility.yul\":470:533   */\n      tag_175\n      jumpi\n        /* \"#utility.yul\":529:530   */\n      0x00\n        /* \"#utility.yul\":526:527   */\n      dup1\n        /* \"#utility.yul\":519:531   */\n      revert\n        /* \"#utility.yul\":470:533   */\n    tag_175:\n        /* \"#utility.yul\":417:539   */\n      pop\n      jump\t// out\n        /* \"#utility.yul\":545:684   */\n    tag_115:\n        /* \"#utility.yul\":591:596   */\n      0x00\n        /* \"#utility.yul\":629:635   */\n      dup2\n        /* \"#utility.yul\":616:636   */\n      calldataload\n        /* \"#utility.yul\":607:636   */\n      swap1\n      pop\n        /* \"#utility.yul\":645:678   */\n      tag_177\n        /* \"#utility.yul\":672:677   */\n      dup2\n        /* \"#utility.yul\":645:678   */\n      tag_114\n      jump\t// in\n    tag_177:\n        /* \"#utility.yul\":545:684   */\n      swap3\n      swap2\n      pop\n      pop\n      jump\t// out\n        /* \"#utility.yul\":690:1019   */\n    tag_17:\n        /* \"#utility.yul\":749:755   */\n      0x00\n        /* \"#utility.yul\":798:800   */\n      0x20\n        /* \"#utility.yul\":786:795   */\n      dup3\n        /* \"#utility.yul\":777:784   */\n      dup5\n        /* \"#utility.yul\":773:796   */\n      sub\n        /* \"#utility.yul\":769:801   */\n      slt\n        /* \"#utility.yul\":766:885   */\n      iszero\n      tag_179\n      jumpi\n        /* \"#utility.yul\":804:883   */\n      tag_180\n      tag_111\n      jump\t// in\n    tag_180:\n        /* \"#utility.yul\":766:885   */\n    tag_179:\n        /* \"#utility.yul\":924:925   */\n      0x00\n        /* \"#utility.yul\":949:1002   */\n      tag_181\n        /* \"#utility.yul\":994:1001   */\n      dup5\n        /* \"#utility.yul\":985:991   */\n      dup3\n        /* \"#utility.yul\":974:983   */\n      dup6\n        /* \"#utility.yul\":970:992   */\n      add\n        /* \"#utility.yul\":949:1002   */\n      tag_115\n      jump\t// in\n    tag_181:\n        /* \"#utility.yul\":939:1002   */\n      swap2\n      pop\n        /* \"#utility.yul\":895:1012   */\n      pop\n        /* \"#utility.yul\":690:1019   */\n      swap3\n      swap2\n      pop\n      pop\n      jump\t// out\n        /* \"#utility.yul\":1025:1151   */\n    tag_116:\n        /* \"#utility.yul\":1062:1069   */\n      0x00\n        /* \"#utility.yul\":1102:1144   */\n      0xffffffffffffffffffffffffffffffffffffffff\n        /* \"#utility.yul\":1095:1100   */\n      dup3\n        /* \"#utility.yul\":1091:1145   */\n      and\n        /* \"#utility.yul\":1080:1145   */\n      swap1\n      pop\n        /* \"#utility.yul\":1025:1151   */\n      swap2\n      swap1\n      pop\n      jump\t// out\n        /* \"#utility.yul\":1157:1253   */\n    tag_117:\n        /* \"#utility.yul\":1194:1201   */\n      0x00\n        /* \"#utility.yul\":1223:1247   */\n      tag_184\n        /* \"#utility.yul\":1241:1246   */\n      dup3\n        /* \"#utility.yul\":1223:1247   */\n      tag_116\n      jump\t// in\n    tag_184:\n        /* \"#utility.yul\":1212:1247   */\n      swap1\n      pop\n        /* \"#utility.yul\":1157:1253   */\n      swap2\n      swap1\n      pop\n      jump\t// out\n        /* \"#utility.yul\":1259:1381   */\n    tag_118:\n        /* \"#utility.yul\":1332:1356   */\n      tag_186\n        /* \"#utility.yul\":1350:1355   */\n      dup2\n        /* \"#utility.yul\":1332:1356   */\n      tag_117\n      jump\t// in\n    tag_186:\n        /* \"#utility.yul\":1325:1330   */\n      dup2\n        /* \"#utility.yul\":1322:1357   */\n      eq\n        /* \"#utility.yul\":1312:1375   */\n      tag_187\n      jumpi\n        /* \"#utility.yul\":1371:1372   */\n      0x00\n        /* \"#utility.yul\":1368:1369   */\n      dup1\n        /* \"#utility.yul\":1361:1373   */\n      revert\n        /* \"#utility.yul\":1312:1375   */\n    tag_187:\n        /* \"#utility.yul\":1259:1381   */\n      pop\n      jump\t// out\n        /* \"#utility.yul\":1387:1526   */\n    tag_119:\n        /* \"#utility.yul\":1433:1438   */\n      0x00\n        /* \"#utility.yul\":1471:1477   */\n      dup2\n        /* \"#utility.yul\":1458:1478   */\n      calldataload\n        /* \"#utility.yul\":1449:1478   */\n      swap1\n      pop\n        /* \"#utility.yul\":1487:1520   */\n      tag_189\n        /* \"#utility.yul\":1514:1519   */\n      dup2\n        /* \"#utility.yul\":1487:1520   */\n      tag_118\n      jump\t// in\n    tag_189:\n        /* \"#utility.yul\":1387:1526   */\n      swap3\n      swap2\n      pop\n      pop\n      jump\t// out\n        /* \"#utility.yul\":1532:1861   */\n    tag_22:\n        /* \"#utility.yul\":1591:1597   */\n      0x00\n        /* \"#utility.yul\":1640:1642   */\n      0x20\n        /* \"#utility.yul\":1628:1637   */\n      dup3\n        /* \"#utility.yul\":1619:1626   */\n      dup5\n        /* \"#utility.yul\":1615:1638   */\n      sub\n        /* \"#utility.yul\":1611:1643   */\n      slt\n        /* \"#utility.yul\":1608:1727   */\n      iszero\n      tag_191\n      jumpi\n        /* \"#utility.yul\":1646:1725   */\n      tag_192\n      tag_111\n      jump\t// in\n    tag_192:\n        /* \"#utility.yul\":1608:1727   */\n    tag_191:\n        /* \"#utility.yul\":1766:1767   */\n      0x00\n        /* \"#utility.yul\":1791:1844   */\n      tag_193\n        /* \"#utility.yul\":1836:1843   */\n      dup5\n        /* \"#utility.yul\":1827:1833   */\n      dup3\n        /* \"#utility.yul\":1816:1825   */\n      dup6\n        /* \"#utility.yul\":1812:1834   */\n      add\n        /* \"#utility.yul\":1791:1844   */\n      tag_119\n      jump\t// in\n    tag_193:\n        /* \"#utility.yul\":1781:1844   */\n      swap2\n      pop\n        /* \"#utility.yul\":1737:1854   */\n      pop\n        /* \"#utility.yul\":1532:1861   */\n      swap3\n      swap2\n      pop\n      pop\n      jump\t// out\n        /* \"#utility.yul\":1867:1957   */\n    tag_120:\n        /* \"#utility.yul\":1901:1908   */\n      0x00\n        /* \"#utility.yul\":1944:1949   */\n      dup2\n        /* \"#utility.yul\":1937:1950   */\n      iszero\n        /* \"#utility.yul\":1930:1951   */\n      iszero\n        /* \"#utility.yul\":1919:1951   */\n      swap1\n      pop\n        /* \"#utility.yul\":1867:1957   */\n      swap2\n      swap1\n      pop\n      jump\t// out\n        /* \"#utility.yul\":1963:2072   */\n    tag_121:\n        /* \"#utility.yul\":2044:2065   */\n      tag_196\n        /* \"#utility.yul\":2059:2064   */\n      dup2\n        /* \"#utility.yul\":2044:2065   */\n      tag_120\n      jump\t// in\n    tag_196:\n        /* \"#utility.yul\":2039:2042   */\n      dup3\n        /* \"#utility.yul\":2032:2066   */\n      mstore\n        /* \"#utility.yul\":1963:2072   */\n      pop\n      pop\n      jump\t// out\n        /* \"#utility.yul\":2078:2288   */\n    tag_25:\n        /* \"#utility.yul\":2165:2169   */\n      0x00\n        /* \"#utility.yul\":2203:2205   */\n      0x20\n        /* \"#utility.yul\":2192:2201   */\n      dup3\n        /* \"#utility.yul\":2188:2206   */\n      add\n        /* \"#utility.yul\":2180:2206   */\n      swap1\n      pop\n        /* \"#utility.yul\":2216:2281   */\n      tag_198\n        /* \"#utility.yul\":2278:2279   */\n      0x00\n        /* \"#utility.yul\":2267:2276   */\n      dup4\n        /* \"#utility.yul\":2263:2280   */\n      add\n        /* \"#utility.yul\":2254:2260   */\n      dup5\n        /* \"#utility.yul\":2216:2281   */\n      tag_121\n      jump\t// in\n    tag_198:\n        /* \"#utility.yul\":2078:2288   */\n      swap3\n      swap2\n      pop\n      pop\n      jump\t// out\n        /* \"#utility.yul\":2294:2412   */\n    tag_122:\n        /* \"#utility.yul\":2381:2405   */\n      tag_200\n        /* \"#utility.yul\":2399:2404   */\n      dup2\n        /* \"#utility.yul\":2381:2405   */\n      tag_113\n      jump\t// in\n    tag_200:\n        /* \"#utility.yul\":2376:2379   */\n      dup3\n        /* \"#utility.yul\":2369:2406   */\n      mstore\n        /* \"#utility.yul\":2294:2412   */\n      pop\n      pop\n      jump\t// out\n        /* \"#utility.yul\":2418:2640   */\n    tag_30:\n        /* \"#utility.yul\":2511:2515   */\n      0x00\n        /* \"#utility.yul\":2549:2551   */\n      0x20\n        /* \"#utility.yul\":2538:2547   */\n      dup3\n        /* \"#utility.yul\":2534:2552   */\n      add\n        /* \"#utility.yul\":2526:2552   */\n      swap1\n      pop\n        /* \"#utility.yul\":2562:2633   */\n      tag_202\n        /* \"#utility.yul\":2630:2631   */\n      0x00\n        /* \"#utility.yul\":2619:2628   */\n      dup4\n        /* \"#utility.yul\":2615:2632   */\n      add\n        /* \"#utility.yul\":2606:2612   */\n      dup5\n        /* \"#utility.yul\":2562:2633   */\n      tag_122\n      jump\t// in\n    tag_202:\n        /* \"#utility.yul\":2418:2640   */\n      swap3\n      swap2\n      pop\n      pop\n      jump\t// out\n        /* \"#utility.yul\":2646:2764   */\n    tag_123:\n        /* \"#utility.yul\":2733:2757   */\n      tag_204\n        /* \"#utility.yul\":2751:2756   */\n      dup2\n        /* \"#utility.yul\":2733:2757   */\n      tag_117\n      jump\t// in\n    tag_204:\n        /* \"#utility.yul\":2728:2731   */\n      dup3\n        /* \"#utility.yul\":2721:2758   */\n      mstore\n        /* \"#utility.yul\":2646:2764   */\n      pop\n      pop\n      jump\t// out\n        /* \"#utility.yul\":2770:3434   */\n    tag_35:\n        /* \"#utility.yul\":2975:2979   */\n      0x00\n        /* \"#utility.yul\":3013:3016   */\n      0xa0\n        /* \"#utility.yul\":3002:3011   */\n      dup3\n        /* \"#utility.yul\":2998:3017   */\n      add\n        /* \"#utility.yul\":2990:3017   */\n      swap1\n      pop\n        /* \"#utility.yul\":3027:3098   */\n      tag_206\n        /* \"#utility.yul\":3095:3096   */\n      0x00\n        /* \"#utility.yul\":3084:3093   */\n      dup4\n        /* \"#utility.yul\":3080:3097   */\n      add\n        /* \"#utility.yul\":3071:3077   */\n      dup9\n        /* \"#utility.yul\":3027:3098   */\n      tag_122\n      jump\t// in\n    tag_206:\n        /* \"#utility.yul\":3108:3180   */\n      tag_207\n        /* \"#utility.yul\":3176:3178   */\n      0x20\n        /* \"#utility.yul\":3165:3174   */\n      dup4\n        /* \"#utility.yul\":3161:3179   */\n      add\n        /* \"#utility.yul\":3152:3158   */\n      dup8\n        /* \"#utility.yul\":3108:3180   */\n      tag_122\n      jump\t// in\n    tag_207:\n        /* \"#utility.yul\":3190:3262   */\n      tag_208\n        /* \"#utility.yul\":3258:3260   */\n      0x40\n        /* \"#utility.yul\":3247:3256   */\n      dup4\n        /* \"#utility.yul\":3243:3261   */\n      add\n        /* \"#utility.yul\":3234:3240   */\n      dup7\n        /* \"#utility.yul\":3190:3262   */\n      tag_122\n      jump\t// in\n    tag_208:\n        /* \"#utility.yul\":3272:3344   */\n      tag_209\n        /* \"#utility.yul\":3340:3342   */\n      0x60\n        /* \"#utility.yul\":3329:3338   */\n      dup4\n        /* \"#utility.yul\":3325:3343   */\n      add\n        /* \"#utility.yul\":3316:3322   */\n      dup6\n        /* \"#utility.yul\":3272:3344   */\n      tag_122\n      jump\t// in\n    tag_209:\n        /* \"#utility.yul\":3354:3427   */\n      tag_210\n        /* \"#utility.yul\":3422:3425   */\n      0x80\n        /* \"#utility.yul\":3411:3420   */\n      dup4\n        /* \"#utility.yul\":3407:3426   */\n      add\n        /* \"#utility.yul\":3398:3404   */\n      dup5\n        /* \"#utility.yul\":3354:3427   */\n      tag_123\n      jump\t// in\n    tag_210:\n        /* \"#utility.yul\":2770:3434   */\n      swap7\n      swap6\n      pop\n      pop\n      pop\n      pop\n      pop\n      pop\n      jump\t// out\n        /* \"#utility.yul\":3440:3662   */\n    tag_40:\n        /* \"#utility.yul\":3533:3537   */\n      0x00\n        /* \"#utility.yul\":3571:3573   */\n      0x20\n        /* \"#utility.yul\":3560:3569   */\n      dup3\n        /* \"#utility.yul\":3556:3574   */\n      add\n        /* \"#utility.yul\":3548:3574   */\n      swap1\n      pop\n        /* \"#utility.yul\":3584:3655   */\n      tag_212\n        /* \"#utility.yul\":3652:3653   */\n      0x00\n        /* \"#utility.yul\":3641:3650   */\n      dup4\n        /* \"#utility.yul\":3637:3654   */\n      add\n        /* \"#utility.yul\":3628:3634   */\n      dup5\n        /* \"#utility.yul\":3584:3655   */\n      tag_123\n      jump\t// in\n    tag_212:\n        /* \"#utility.yul\":3440:3662   */\n      swap3\n      swap2\n      pop\n      pop\n      jump\t// out\n        /* \"#utility.yul\":3668:3767   */\n    tag_124:\n        /* \"#utility.yul\":3720:3726   */\n      0x00\n        /* \"#utility.yul\":3754:3759   */\n      dup2\n        /* \"#utility.yul\":3748:3760   */\n      mload\n        /* \"#utility.yul\":3738:3760   */\n      swap1\n      pop\n        /* \"#utility.yul\":3668:3767   */\n      swap2\n      swap1\n      pop\n      jump\t// out\n        /* \"#utility.yul\":3773:3942   */\n    tag_125:\n        /* \"#utility.yul\":3857:3868   */\n      0x00\n        /* \"#utility.yul\":3891:3897   */\n      dup3\n        /* \"#utility.yul\":3886:3889   */\n      dup3\n        /* \"#utility.yul\":3879:3898   */\n      mstore\n        /* \"#utility.yul\":3931:3935   */\n      0x20\n        /* \"#utility.yul\":3926:3929   */\n      dup3\n        /* \"#utility.yul\":3922:3936   */\n      add\n        /* \"#utility.yul\":3907:3936   */\n      swap1\n      pop\n        /* \"#utility.yul\":3773:3942   */\n      swap3\n      swap2\n      pop\n      pop\n      jump\t// out\n        /* \"#utility.yul\":3948:4194   */\n    tag_126:\n        /* \"#utility.yul\":4029:4030   */\n      0x00\n        /* \"#utility.yul\":4039:4152   */\n    tag_216:\n        /* \"#utility.yul\":4053:4059   */\n      dup4\n        /* \"#utility.yul\":4050:4051   */\n      dup2\n        /* \"#utility.yul\":4047:4060   */\n      lt\n        /* \"#utility.yul\":4039:4152   */\n      iszero\n      tag_218\n      jumpi\n        /* \"#utility.yul\":4138:4139   */\n      dup1\n        /* \"#utility.yul\":4133:4136   */\n      dup3\n        /* \"#utility.yul\":4129:4140   */\n      add\n        /* \"#utility.yul\":4123:4141   */\n      mload\n        /* \"#utility.yul\":4119:4120   */\n      dup2\n        /* \"#utility.yul\":4114:4117   */\n      dup5\n        /* \"#utility.yul\":4110:4121   */\n      add\n        /* \"#utility.yul\":4103:4142   */\n      mstore\n        /* \"#utility.yul\":4075:4077   */\n      0x20\n        /* \"#utility.yul\":4072:4073   */\n      dup2\n        /* \"#utility.yul\":4068:4078   */\n      add\n        /* \"#utility.yul\":4063:4078   */\n      swap1\n      pop\n        /* \"#utility.yul\":4039:4152   */\n      jump(tag_216)\n    tag_218:\n        /* \"#utility.yul\":4186:4187   */\n      0x00\n        /* \"#utility.yul\":4177:4183   */\n      dup5\n        /* \"#utility.yul\":4172:4175   */\n      dup5\n        /* \"#utility.yul\":4168:4184   */\n      add\n        /* \"#utility.yul\":4161:4188   */\n      mstore\n        /* \"#utility.yul\":4010:4194   */\n      pop\n        /* \"#utility.yul\":3948:4194   */\n      pop\n      pop\n      pop\n      jump\t// out\n        /* \"#utility.yul\":4200:4302   */\n    tag_127:\n        /* \"#utility.yul\":4241:4247   */\n      0x00\n        /* \"#utility.yul\":4292:4294   */\n      0x1f\n        /* \"#utility.yul\":4288:4295   */\n      not\n        /* \"#utility.yul\":4283:4285   */\n      0x1f\n        /* \"#utility.yul\":4276:4281   */\n      dup4\n        /* \"#utility.yul\":4272:4286   */\n      add\n        /* \"#utility.yul\":4268:4296   */\n      and\n        /* \"#utility.yul\":4258:4296   */\n      swap1\n      pop\n        /* \"#utility.yul\":4200:4302   */\n      swap2\n      swap1\n      pop\n      jump\t// out\n        /* \"#utility.yul\":4308:4685   */\n    tag_128:\n        /* \"#utility.yul\":4396:4399   */\n      0x00\n        /* \"#utility.yul\":4424:4463   */\n      tag_221\n        /* \"#utility.yul\":4457:4462   */\n      dup3\n        /* \"#utility.yul\":4424:4463   */\n      tag_124\n      jump\t// in\n    tag_221:\n        /* \"#utility.yul\":4479:4550   */\n      tag_222\n        /* \"#utility.yul\":4543:4549   */\n      dup2\n        /* \"#utility.yul\":4538:4541   */\n      dup6\n        /* \"#utility.yul\":4479:4550   */\n      tag_125\n      jump\t// in\n    tag_222:\n        /* \"#utility.yul\":4472:4550   */\n      swap4\n      pop\n        /* \"#utility.yul\":4559:4624   */\n      tag_223\n        /* \"#utility.yul\":4617:4623   */\n      dup2\n        /* \"#utility.yul\":4612:4615   */\n      dup6\n        /* \"#utility.yul\":4605:4609   */\n      0x20\n        /* \"#utility.yul\":4598:4603   */\n      dup7\n        /* \"#utility.yul\":4594:4610   */\n      add\n        /* \"#utility.yul\":4559:4624   */\n      tag_126\n      jump\t// in\n    tag_223:\n        /* \"#utility.yul\":4649:4678   */\n      tag_224\n        /* \"#utility.yul\":4671:4677   */\n      dup2\n        /* \"#utility.yul\":4649:4678   */\n      tag_127\n      jump\t// in\n    tag_224:\n        /* \"#utility.yul\":4644:4647   */\n      dup5\n        /* \"#utility.yul\":4640:4679   */\n      add\n        /* \"#utility.yul\":4633:4679   */\n      swap2\n      pop\n        /* \"#utility.yul\":4400:4685   */\n      pop\n        /* \"#utility.yul\":4308:4685   */\n      swap3\n      swap2\n      pop\n      pop\n      jump\t// out\n        /* \"#utility.yul\":4691:5434   */\n    tag_46:\n        /* \"#utility.yul\":4910:4914   */\n      0x00\n        /* \"#utility.yul\":4948:4951   */\n      0xa0\n        /* \"#utility.yul\":4937:4946   */\n      dup3\n        /* \"#utility.yul\":4933:4952   */\n      add\n        /* \"#utility.yul\":4925:4952   */\n      swap1\n      pop\n        /* \"#utility.yul\":4998:5007   */\n      dup2\n        /* \"#utility.yul\":4992:4996   */\n      dup2\n        /* \"#utility.yul\":4988:5008   */\n      sub\n        /* \"#utility.yul\":4984:4985   */\n      0x00\n        /* \"#utility.yul\":4973:4982   */\n      dup4\n        /* \"#utility.yul\":4969:4986   */\n      add\n        /* \"#utility.yul\":4962:5009   */\n      mstore\n        /* \"#utility.yul\":5026:5104   */\n      tag_226\n        /* \"#utility.yul\":5099:5103   */\n      dup2\n        /* \"#utility.yul\":5090:5096   */\n      dup9\n        /* \"#utility.yul\":5026:5104   */\n      tag_128\n      jump\t// in\n    tag_226:\n        /* \"#utility.yul\":5018:5104   */\n      swap1\n      pop\n        /* \"#utility.yul\":5114:5186   */\n      tag_227\n        /* \"#utility.yul\":5182:5184   */\n      0x20\n        /* \"#utility.yul\":5171:5180   */\n      dup4\n        /* \"#utility.yul\":5167:5185   */\n      add\n        /* \"#utility.yul\":5158:5164   */\n      dup8\n        /* \"#utility.yul\":5114:5186   */\n      tag_122\n      jump\t// in\n    tag_227:\n        /* \"#utility.yul\":5196:5268   */\n      tag_228\n        /* \"#utility.yul\":5264:5266   */\n      0x40\n        /* \"#utility.yul\":5253:5262   */\n      dup4\n        /* \"#utility.yul\":5249:5267   */\n      add\n        /* \"#utility.yul\":5240:5246   */\n      dup7\n        /* \"#utility.yul\":5196:5268   */\n      tag_123\n      jump\t// in\n    tag_228:\n        /* \"#utility.yul\":5278:5344   */\n      tag_229\n        /* \"#utility.yul\":5340:5342   */\n      0x60\n        /* \"#utility.yul\":5329:5338   */\n      dup4\n        /* \"#utility.yul\":5325:5343   */\n      add\n        /* \"#utility.yul\":5316:5322   */\n      dup6\n        /* \"#utility.yul\":5278:5344   */\n      tag_121\n      jump\t// in\n    tag_229:\n        /* \"#utility.yul\":5354:5427   */\n      tag_230\n        /* \"#utility.yul\":5422:5425   */\n      0x80\n        /* \"#utility.yul\":5411:5420   */\n      dup4\n        /* \"#utility.yul\":5407:5426   */\n      add\n        /* \"#utility.yul\":5398:5404   */\n      dup5\n        /* \"#utility.yul\":5354:5427   */\n      tag_122\n      jump\t// in\n    tag_230:\n        /* \"#utility.yul\":4691:5434   */\n      swap7\n      swap6\n      pop\n      pop\n      pop\n      pop\n      pop\n      pop\n      jump\t// out\n        /* \"#utility.yul\":5440:5557   */\n    tag_129:\n        /* \"#utility.yul\":5549:5550   */\n      0x00\n        /* \"#utility.yul\":5546:5547   */\n      dup1\n        /* \"#utility.yul\":5539:5551   */\n      revert\n        /* \"#utility.yul\":5563:5680   */\n    tag_130:\n        /* \"#utility.yul\":5672:5673   */\n      0x00\n        /* \"#utility.yul\":5669:5670   */\n      dup1\n        /* \"#utility.yul\":5662:5674   */\n      revert\n        /* \"#utility.yul\":5686:5866   */\n    tag_131:\n        /* \"#utility.yul\":5734:5811   */\n      0x4e487b7100000000000000000000000000000000000000000000000000000000\n        /* \"#utility.yul\":5731:5732   */\n      0x00\n        /* \"#utility.yul\":5724:5812   */\n      mstore\n        /* \"#utility.yul\":5831:5835   */\n      0x41\n        /* \"#utility.yul\":5828:5829   */\n      0x04\n        /* \"#utility.yul\":5821:5836   */\n      mstore\n        /* \"#utility.yul\":5855:5859   */\n      0x24\n        /* \"#utility.yul\":5852:5853   */\n      0x00\n        /* \"#utility.yul\":5845:5860   */\n      revert\n        /* \"#utility.yul\":5872:6153   */\n    tag_132:\n        /* \"#utility.yul\":5955:5982   */\n      tag_235\n        /* \"#utility.yul\":5977:5981   */\n      dup3\n        /* \"#utility.yul\":5955:5982   */\n      tag_127\n      jump\t// in\n    tag_235:\n        /* \"#utility.yul\":5947:5953   */\n      dup2\n        /* \"#utility.yul\":5943:5983   */\n      add\n        /* \"#utility.yul\":6085:6091   */\n      dup2\n        /* \"#utility.yul\":6073:6083   */\n      dup2\n        /* \"#utility.yul\":6070:6092   */\n      lt\n        /* \"#utility.yul\":6049:6067   */\n      0xffffffffffffffff\n        /* \"#utility.yul\":6037:6047   */\n      dup3\n        /* \"#utility.yul\":6034:6068   */\n      gt\n        /* \"#utility.yul\":6031:6093   */\n      or\n        /* \"#utility.yul\":6028:6116   */\n      iszero\n      tag_236\n      jumpi\n        /* \"#utility.yul\":6096:6114   */\n      tag_237\n      tag_131\n      jump\t// in\n    tag_237:\n        /* \"#utility.yul\":6028:6116   */\n    tag_236:\n        /* \"#utility.yul\":6136:6146   */\n      dup1\n        /* \"#utility.yul\":6132:6134   */\n      0x40\n        /* \"#utility.yul\":6125:6147   */\n      mstore\n        /* \"#utility.yul\":5915:6153   */\n      pop\n        /* \"#utility.yul\":5872:6153   */\n      pop\n      pop\n      jump\t// out\n        /* \"#utility.yul\":6159:6288   */\n    tag_133:\n        /* \"#utility.yul\":6193:6199   */\n      0x00\n        /* \"#utility.yul\":6220:6240   */\n      tag_239\n      tag_110\n      jump\t// in\n    tag_239:\n        /* \"#utility.yul\":6210:6240   */\n      swap1\n      pop\n        /* \"#utility.yul\":6249:6282   */\n      tag_240\n        /* \"#utility.yul\":6277:6281   */\n      dup3\n        /* \"#utility.yul\":6269:6275   */\n      dup3\n        /* \"#utility.yul\":6249:6282   */\n      tag_132\n      jump\t// in\n    tag_240:\n        /* \"#utility.yul\":6159:6288   */\n      swap2\n      swap1\n      pop\n      jump\t// out\n        /* \"#utility.yul\":6294:6602   */\n    tag_134:\n        /* \"#utility.yul\":6356:6360   */\n      0x00\n        /* \"#utility.yul\":6446:6464   */\n      0xffffffffffffffff\n        /* \"#utility.yul\":6438:6444   */\n      dup3\n        /* \"#utility.yul\":6435:6465   */\n      gt\n        /* \"#utility.yul\":6432:6488   */\n      iszero\n      tag_242\n      jumpi\n        /* \"#utility.yul\":6468:6486   */\n      tag_243\n      tag_131\n      jump\t// in\n    tag_243:\n        /* \"#utility.yul\":6432:6488   */\n    tag_242:\n        /* \"#utility.yul\":6506:6535   */\n      tag_244\n        /* \"#utility.yul\":6528:6534   */\n      dup3\n        /* \"#utility.yul\":6506:6535   */\n      tag_127\n      jump\t// in\n    tag_244:\n        /* \"#utility.yul\":6498:6535   */\n      swap1\n      pop\n        /* \"#utility.yul\":6590:6594   */\n      0x20\n        /* \"#utility.yul\":6584:6588   */\n      dup2\n        /* \"#utility.yul\":6580:6595   */\n      add\n        /* \"#utility.yul\":6572:6595   */\n      swap1\n      pop\n        /* \"#utility.yul\":6294:6602   */\n      swap2\n      swap1\n      pop\n      jump\t// out\n        /* \"#utility.yul\":6608:6754   */\n    tag_135:\n        /* \"#utility.yul\":6705:6711   */\n      dup3\n        /* \"#utility.yul\":6700:6703   */\n      dup2\n        /* \"#utility.yul\":6695:6698   */\n      dup4\n        /* \"#utility.yul\":6682:6712   */\n      calldatacopy\n        /* \"#utility.yul\":6746:6747   */\n      0x00\n        /* \"#utility.yul\":6737:6743   */\n      dup4\n        /* \"#utility.yul\":6732:6735   */\n      dup4\n        /* \"#utility.yul\":6728:6744   */\n      add\n        /* \"#utility.yul\":6721:6748   */\n      mstore\n        /* \"#utility.yul\":6608:6754   */\n      pop\n      pop\n      pop\n      jump\t// out\n        /* \"#utility.yul\":6760:7185   */\n    tag_136:\n        /* \"#utility.yul\":6838:6843   */\n      0x00\n        /* \"#utility.yul\":6863:6929   */\n      tag_247\n        /* \"#utility.yul\":6879:6928   */\n      tag_248\n        /* \"#utility.yul\":6921:6927   */\n      dup5\n        /* \"#utility.yul\":6879:6928   */\n      tag_134\n      jump\t// in\n    tag_248:\n        /* \"#utility.yul\":6863:6929   */\n      tag_133\n      jump\t// in\n    tag_247:\n        /* \"#utility.yul\":6854:6929   */\n      swap1\n      pop\n        /* \"#utility.yul\":6952:6958   */\n      dup3\n        /* \"#utility.yul\":6945:6950   */\n      dup2\n        /* \"#utility.yul\":6938:6959   */\n      mstore\n        /* \"#utility.yul\":6990:6994   */\n      0x20\n        /* \"#utility.yul\":6983:6988   */\n      dup2\n        /* \"#utility.yul\":6979:6995   */\n      add\n        /* \"#utility.yul\":7028:7031   */\n      dup5\n        /* \"#utility.yul\":7019:7025   */\n      dup5\n        /* \"#utility.yul\":7014:7017   */\n      dup5\n        /* \"#utility.yul\":7010:7026   */\n      add\n        /* \"#utility.yul\":7007:7032   */\n      gt\n        /* \"#utility.yul\":7004:7116   */\n      iszero\n      tag_249\n      jumpi\n        /* \"#utility.yul\":7035:7114   */\n      tag_250\n      tag_130\n      jump\t// in\n    tag_250:\n        /* \"#utility.yul\":7004:7116   */\n    tag_249:\n        /* \"#utility.yul\":7125:7179   */\n      tag_251\n        /* \"#utility.yul\":7172:7178   */\n      dup5\n        /* \"#utility.yul\":7167:7170   */\n      dup3\n        /* \"#utility.yul\":7162:7165   */\n      dup6\n        /* \"#utility.yul\":7125:7179   */\n      tag_135\n      jump\t// in\n    tag_251:\n        /* \"#utility.yul\":6844:7185   */\n      pop\n        /* \"#utility.yul\":6760:7185   */\n      swap4\n      swap3\n      pop\n      pop\n      pop\n      jump\t// out\n        /* \"#utility.yul\":7205:7545   */\n    tag_137:\n        /* \"#utility.yul\":7261:7266   */\n      0x00\n        /* \"#utility.yul\":7310:7313   */\n      dup3\n        /* \"#utility.yul\":7303:7307   */\n      0x1f\n        /* \"#utility.yul\":7295:7301   */\n      dup4\n        /* \"#utility.yul\":7291:7308   */\n      add\n        /* \"#utility.yul\":7287:7314   */\n      slt\n        /* \"#utility.yul\":7277:7399   */\n      tag_253\n      jumpi\n        /* \"#utility.yul\":7318:7397   */\n      tag_254\n      tag_129\n      jump\t// in\n    tag_254:\n        /* \"#utility.yul\":7277:7399   */\n    tag_253:\n        /* \"#utility.yul\":7435:7441   */\n      dup2\n        /* \"#utility.yul\":7422:7442   */\n      calldataload\n        /* \"#utility.yul\":7460:7539   */\n      tag_255\n        /* \"#utility.yul\":7535:7538   */\n      dup5\n        /* \"#utility.yul\":7527:7533   */\n      dup3\n        /* \"#utility.yul\":7520:7524   */\n      0x20\n        /* \"#utility.yul\":7512:7518   */\n      dup7\n        /* \"#utility.yul\":7508:7525   */\n      add\n        /* \"#utility.yul\":7460:7539   */\n      tag_136\n      jump\t// in\n    tag_255:\n        /* \"#utility.yul\":7451:7539   */\n      swap2\n      pop\n        /* \"#utility.yul\":7267:7545   */\n      pop\n        /* \"#utility.yul\":7205:7545   */\n      swap3\n      swap2\n      pop\n      pop\n      jump\t// out\n        /* \"#utility.yul\":7551:8350   */\n    tag_54:\n        /* \"#utility.yul\":7638:7644   */\n      0x00\n        /* \"#utility.yul\":7646:7652   */\n      dup1\n        /* \"#utility.yul\":7654:7660   */\n      0x00\n        /* \"#utility.yul\":7703:7705   */\n      0x60\n        /* \"#utility.yul\":7691:7700   */\n      dup5\n        /* \"#utility.yul\":7682:7689   */\n      dup7\n        /* \"#utility.yul\":7678:7701   */\n      sub\n        /* \"#utility.yul\":7674:7706   */\n      slt\n        /* \"#utility.yul\":7671:7790   */\n      iszero\n      tag_257\n      jumpi\n        /* \"#utility.yul\":7709:7788   */\n      tag_258\n      tag_111\n      jump\t// in\n    tag_258:\n        /* \"#utility.yul\":7671:7790   */\n    tag_257:\n        /* \"#utility.yul\":7857:7858   */\n      0x00\n        /* \"#utility.yul\":7846:7855   */\n      dup5\n        /* \"#utility.yul\":7842:7859   */\n      add\n        /* \"#utility.yul\":7829:7860   */\n      calldataload\n        /* \"#utility.yul\":7887:7905   */\n      0xffffffffffffffff\n        /* \"#utility.yul\":7879:7885   */\n      dup2\n        /* \"#utility.yul\":7876:7906   */\n      gt\n        /* \"#utility.yul\":7873:7990   */\n      iszero\n      tag_259\n      jumpi\n        /* \"#utility.yul\":7909:7988   */\n      tag_260\n      tag_112\n      jump\t// in\n    tag_260:\n        /* \"#utility.yul\":7873:7990   */\n    tag_259:\n        /* \"#utility.yul\":8014:8077   */\n      tag_261\n        /* \"#utility.yul\":8069:8076   */\n      dup7\n        /* \"#utility.yul\":8060:8066   */\n      dup3\n        /* \"#utility.yul\":8049:8058   */\n      dup8\n        /* \"#utility.yul\":8045:8067   */\n      add\n        /* \"#utility.yul\":8014:8077   */\n      tag_137\n      jump\t// in\n    tag_261:\n        /* \"#utility.yul\":8004:8077   */\n      swap4\n      pop\n        /* \"#utility.yul\":7800:8087   */\n      pop\n        /* \"#utility.yul\":8126:8128   */\n      0x20\n        /* \"#utility.yul\":8152:8205   */\n      tag_262\n        /* \"#utility.yul\":8197:8204   */\n      dup7\n        /* \"#utility.yul\":8188:8194   */\n      dup3\n        /* \"#utility.yul\":8177:8186   */\n      dup8\n        /* \"#utility.yul\":8173:8195   */\n      add\n        /* \"#utility.yul\":8152:8205   */\n      tag_115\n      jump\t// in\n    tag_262:\n        /* \"#utility.yul\":8142:8205   */\n      swap3\n      pop\n        /* \"#utility.yul\":8097:8215   */\n      pop\n        /* \"#utility.yul\":8254:8256   */\n      0x40\n        /* \"#utility.yul\":8280:8333   */\n      tag_263\n        /* \"#utility.yul\":8325:8332   */\n      dup7\n        /* \"#utility.yul\":8316:8322   */\n      dup3\n        /* \"#utility.yul\":8305:8314   */\n      dup8\n        /* \"#utility.yul\":8301:8323   */\n      add\n        /* \"#utility.yul\":8280:8333   */\n      tag_119\n      jump\t// in\n    tag_263:\n        /* \"#utility.yul\":8270:8333   */\n      swap2\n      pop\n        /* \"#utility.yul\":8225:8343   */\n      pop\n        /* \"#utility.yul\":7551:8350   */\n      swap3\n      pop\n      swap3\n      pop\n      swap3\n      jump\t// out\n        /* \"#utility.yul\":8356:8528   */\n    tag_138:\n        /* \"#utility.yul\":8496:8520   */\n      0x596f75277265206e6f7420746865206d616e6167657200000000000000000000\n        /* \"#utility.yul\":8492:8493   */\n      0x00\n        /* \"#utility.yul\":8484:8490   */\n      dup3\n        /* \"#utility.yul\":8480:8494   */\n      add\n        /* \"#utility.yul\":8473:8521   */\n      mstore\n        /* \"#utility.yul\":8356:8528   */\n      pop\n      jump\t// out\n        /* \"#utility.yul\":8534:8900   */\n    tag_139:\n        /* \"#utility.yul\":8676:8679   */\n      0x00\n        /* \"#utility.yul\":8697:8764   */\n      tag_266\n        /* \"#utility.yul\":8761:8763   */\n      0x16\n        /* \"#utility.yul\":8756:8759   */\n      dup4\n        /* \"#utility.yul\":8697:8764   */\n      tag_125\n      jump\t// in\n    tag_266:\n        /* \"#utility.yul\":8690:8764   */\n      swap2\n      pop\n        /* \"#utility.yul\":8773:8866   */\n      tag_267\n        /* \"#utility.yul\":8862:8865   */\n      dup3\n        /* \"#utility.yul\":8773:8866   */\n      tag_138\n      jump\t// in\n    tag_267:\n        /* \"#utility.yul\":8891:8893   */\n      0x20\n        /* \"#utility.yul\":8886:8889   */\n      dup3\n        /* \"#utility.yul\":8882:8894   */\n      add\n        /* \"#utility.yul\":8875:8894   */\n      swap1\n      pop\n        /* \"#utility.yul\":8534:8900   */\n      swap2\n      swap1\n      pop\n      jump\t// out\n        /* \"#utility.yul\":8906:9325   */\n    tag_69:\n        /* \"#utility.yul\":9072:9076   */\n      0x00\n        /* \"#utility.yul\":9110:9112   */\n      0x20\n        /* \"#utility.yul\":9099:9108   */\n      dup3\n        /* \"#utility.yul\":9095:9113   */\n      add\n        /* \"#utility.yul\":9087:9113   */\n      swap1\n      pop\n        /* \"#utility.yul\":9159:9168   */\n      dup2\n        /* \"#utility.yul\":9153:9157   */\n      dup2\n        /* \"#utility.yul\":9149:9169   */\n      sub\n        /* \"#utility.yul\":9145:9146   */\n      0x00\n        /* \"#utility.yul\":9134:9143   */\n      dup4\n        /* \"#utility.yul\":9130:9147   */\n      add\n        /* \"#utility.yul\":9123:9170   */\n      mstore\n        /* \"#utility.yul\":9187:9318   */\n      tag_269\n        /* \"#utility.yul\":9313:9317   */\n      dup2\n        /* \"#utility.yul\":9187:9318   */\n      tag_139\n      jump\t// in\n    tag_269:\n        /* \"#utility.yul\":9179:9318   */\n      swap1\n      pop\n        /* \"#utility.yul\":8906:9325   */\n      swap2\n      swap1\n      pop\n      jump\t// out\n        /* \"#utility.yul\":9331:9560   */\n    tag_140:\n        /* \"#utility.yul\":9471:9505   */\n      0x546865207265717565737420697320616c7265616479206d61726b6564206173\n        /* \"#utility.yul\":9467:9468   */\n      0x00\n        /* \"#utility.yul\":9459:9465   */\n      dup3\n        /* \"#utility.yul\":9455:9469   */\n      add\n        /* \"#utility.yul\":9448:9506   */\n      mstore\n        /* \"#utility.yul\":9540:9552   */\n      0x20636f6d706c6574656400000000000000000000000000000000000000000000\n        /* \"#utility.yul\":9535:9537   */\n      0x20\n        /* \"#utility.yul\":9527:9533   */\n      dup3\n        /* \"#utility.yul\":9523:9538   */\n      add\n        /* \"#utility.yul\":9516:9553   */\n      mstore\n        /* \"#utility.yul\":9331:9560   */\n      pop\n      jump\t// out\n        /* \"#utility.yul\":9566:9932   */\n    tag_141:\n        /* \"#utility.yul\":9708:9711   */\n      0x00\n        /* \"#utility.yul\":9729:9796   */\n      tag_272\n        /* \"#utility.yul\":9793:9795   */\n      0x2a\n        /* \"#utility.yul\":9788:9791   */\n      dup4\n        /* \"#utility.yul\":9729:9796   */\n      tag_125\n      jump\t// in\n    tag_272:\n        /* \"#utility.yul\":9722:9796   */\n      swap2\n      pop\n        /* \"#utility.yul\":9805:9898   */\n      tag_273\n        /* \"#utility.yul\":9894:9897   */\n      dup3\n        /* \"#utility.yul\":9805:9898   */\n      tag_140\n      jump\t// in\n    tag_273:\n        /* \"#utility.yul\":9923:9925   */\n      0x40\n        /* \"#utility.yul\":9918:9921   */\n      dup3\n        /* \"#utility.yul\":9914:9926   */\n      add\n        /* \"#utility.yul\":9907:9926   */\n      swap1\n      pop\n        /* \"#utility.yul\":9566:9932   */\n      swap2\n      swap1\n      pop\n      jump\t// out\n        /* \"#utility.yul\":9938:10357   */\n    tag_73:\n        /* \"#utility.yul\":10104:10108   */\n      0x00\n        /* \"#utility.yul\":10142:10144   */\n      0x20\n        /* \"#utility.yul\":10131:10140   */\n      dup3\n        /* \"#utility.yul\":10127:10145   */\n      add\n        /* \"#utility.yul\":10119:10145   */\n      swap1\n      pop\n        /* \"#utility.yul\":10191:10200   */\n      dup2\n        /* \"#utility.yul\":10185:10189   */\n      dup2\n        /* \"#utility.yul\":10181:10201   */\n      sub\n        /* \"#utility.yul\":10177:10178   */\n      0x00\n        /* \"#utility.yul\":10166:10175   */\n      dup4\n        /* \"#utility.yul\":10162:10179   */\n      add\n        /* \"#utility.yul\":10155:10202   */\n      mstore\n        /* \"#utility.yul\":10219:10350   */\n      tag_275\n        /* \"#utility.yul\":10345:10349   */\n      dup2\n        /* \"#utility.yul\":10219:10350   */\n      tag_141\n      jump\t// in\n    tag_275:\n        /* \"#utility.yul\":10211:10350   */\n      swap1\n      pop\n        /* \"#utility.yul\":9938:10357   */\n      swap2\n      swap1\n      pop\n      jump\t// out\n        /* \"#utility.yul\":10363:10543   */\n    tag_142:\n        /* \"#utility.yul\":10411:10488   */\n      0x4e487b7100000000000000000000000000000000000000000000000000000000\n        /* \"#utility.yul\":10408:10409   */\n      0x00\n        /* \"#utility.yul\":10401:10489   */\n      mstore\n        /* \"#utility.yul\":10508:10512   */\n      0x12\n        /* \"#utility.yul\":10505:10506   */\n      0x04\n        /* \"#utility.yul\":10498:10513   */\n      mstore\n        /* \"#utility.yul\":10532:10536   */\n      0x24\n        /* \"#utility.yul\":10529:10530   */\n      0x00\n        /* \"#utility.yul\":10522:10537   */\n      revert\n        /* \"#utility.yul\":10549:10729   */\n    tag_143:\n        /* \"#utility.yul\":10597:10674   */\n      0x4e487b7100000000000000000000000000000000000000000000000000000000\n        /* \"#utility.yul\":10594:10595   */\n      0x00\n        /* \"#utility.yul\":10587:10675   */\n      mstore\n        /* \"#utility.yul\":10694:10698   */\n      0x11\n        /* \"#utility.yul\":10691:10692   */\n      0x04\n        /* \"#utility.yul\":10684:10699   */\n      mstore\n        /* \"#utility.yul\":10718:10722   */\n      0x24\n        /* \"#utility.yul\":10715:10716   */\n      0x00\n        /* \"#utility.yul\":10708:10723   */\n      revert\n        /* \"#utility.yul\":10735:10920   */\n    tag_75:\n        /* \"#utility.yul\":10775:10776   */\n      0x00\n        /* \"#utility.yul\":10792:10812   */\n      tag_279\n        /* \"#utility.yul\":10810:10811   */\n      dup3\n        /* \"#utility.yul\":10792:10812   */\n      tag_113\n      jump\t// in\n    tag_279:\n        /* \"#utility.yul\":10787:10812   */\n      swap2\n      pop\n        /* \"#utility.yul\":10826:10846   */\n      tag_280\n        /* \"#utility.yul\":10844:10845   */\n      dup4\n        /* \"#utility.yul\":10826:10846   */\n      tag_113\n      jump\t// in\n    tag_280:\n        /* \"#utility.yul\":10821:10846   */\n      swap3\n      pop\n        /* \"#utility.yul\":10865:10866   */\n      dup3\n        /* \"#utility.yul\":10855:10890   */\n      tag_281\n      jumpi\n        /* \"#utility.yul\":10870:10888   */\n      tag_282\n      tag_142\n      jump\t// in\n    tag_282:\n        /* \"#utility.yul\":10855:10890   */\n    tag_281:\n        /* \"#utility.yul\":10912:10913   */\n      dup3\n        /* \"#utility.yul\":10909:10910   */\n      dup3\n        /* \"#utility.yul\":10905:10914   */\n      div\n        /* \"#utility.yul\":10900:10914   */\n      swap1\n      pop\n        /* \"#utility.yul\":10735:10920   */\n      swap3\n      swap2\n      pop\n      pop\n      jump\t// out\n        /* \"#utility.yul\":10926:11148   */\n    tag_144:\n        /* \"#utility.yul\":11066:11100   */\n      0x596f7520646f6e2774206861766520656e6f75676820617070726f7665727320\n        /* \"#utility.yul\":11062:11063   */\n      0x00\n        /* \"#utility.yul\":11054:11060   */\n      dup3\n        /* \"#utility.yul\":11050:11064   */\n      add\n        /* \"#utility.yul\":11043:11101   */\n      mstore\n        /* \"#utility.yul\":11135:11140   */\n      0x7965740000000000000000000000000000000000000000000000000000000000\n        /* \"#utility.yul\":11130:11132   */\n      0x20\n        /* \"#utility.yul\":11122:11128   */\n      dup3\n        /* \"#utility.yul\":11118:11133   */\n      add\n        /* \"#utility.yul\":11111:11141   */\n      mstore\n        /* \"#utility.yul\":10926:11148   */\n      pop\n      jump\t// out\n        /* \"#utility.yul\":11154:11520   */\n    tag_145:\n        /* \"#utility.yul\":11296:11299   */\n      0x00\n        /* \"#utility.yul\":11317:11384   */\n      tag_285\n        /* \"#utility.yul\":11381:11383   */\n      0x23\n        /* \"#utility.yul\":11376:11379   */\n      dup4\n        /* \"#utility.yul\":11317:11384   */\n      tag_125\n      jump\t// in\n    tag_285:\n        /* \"#utility.yul\":11310:11384   */\n      swap2\n      pop\n        /* \"#utility.yul\":11393:11486   */\n      tag_286\n        /* \"#utility.yul\":11482:11485   */\n      dup3\n        /* \"#utility.yul\":11393:11486   */\n      tag_144\n      jump\t// in\n    tag_286:\n        /* \"#utility.yul\":11511:11513   */\n      0x40\n        /* \"#utility.yul\":11506:11509   */\n      dup3\n        /* \"#utility.yul\":11502:11514   */\n      add\n        /* \"#utility.yul\":11495:11514   */\n      swap1\n      pop\n        /* \"#utility.yul\":11154:11520   */\n      swap2\n      swap1\n      pop\n      jump\t// out\n        /* \"#utility.yul\":11526:11945   */\n    tag_78:\n        /* \"#utility.yul\":11692:11696   */\n      0x00\n        /* \"#utility.yul\":11730:11732   */\n      0x20\n        /* \"#utility.yul\":11719:11728   */\n      dup3\n        /* \"#utility.yul\":11715:11733   */\n      add\n        /* \"#utility.yul\":11707:11733   */\n      swap1\n      pop\n        /* \"#utility.yul\":11779:11788   */\n      dup2\n        /* \"#utility.yul\":11773:11777   */\n      dup2\n        /* \"#utility.yul\":11769:11789   */\n      sub\n        /* \"#utility.yul\":11765:11766   */\n      0x00\n        /* \"#utility.yul\":11754:11763   */\n      dup4\n        /* \"#utility.yul\":11750:11767   */\n      add\n        /* \"#utility.yul\":11743:11790   */\n      mstore\n        /* \"#utility.yul\":11807:11938   */\n      tag_288\n        /* \"#utility.yul\":11933:11937   */\n      dup2\n        /* \"#utility.yul\":11807:11938   */\n      tag_145\n      jump\t// in\n    tag_288:\n        /* \"#utility.yul\":11799:11938   */\n      swap1\n      pop\n        /* \"#utility.yul\":11526:11945   */\n      swap2\n      swap1\n      pop\n      jump\t// out\n        /* \"#utility.yul\":11951:12131   */\n    tag_146:\n        /* \"#utility.yul\":11999:12076   */\n      0x4e487b7100000000000000000000000000000000000000000000000000000000\n        /* \"#utility.yul\":11996:11997   */\n      0x00\n        /* \"#utility.yul\":11989:12077   */\n      mstore\n        /* \"#utility.yul\":12096:12100   */\n      0x22\n        /* \"#utility.yul\":12093:12094   */\n      0x04\n        /* \"#utility.yul\":12086:12101   */\n      mstore\n        /* \"#utility.yul\":12120:12124   */\n      0x24\n        /* \"#utility.yul\":12117:12118   */\n      0x00\n        /* \"#utility.yul\":12110:12125   */\n      revert\n        /* \"#utility.yul\":12137:12457   */\n    tag_84:\n        /* \"#utility.yul\":12181:12187   */\n      0x00\n        /* \"#utility.yul\":12218:12219   */\n      0x02\n        /* \"#utility.yul\":12212:12216   */\n      dup3\n        /* \"#utility.yul\":12208:12220   */\n      div\n        /* \"#utility.yul\":12198:12220   */\n      swap1\n      pop\n        /* \"#utility.yul\":12265:12266   */\n      0x01\n        /* \"#utility.yul\":12259:12263   */\n      dup3\n        /* \"#utility.yul\":12255:12267   */\n      and\n        /* \"#utility.yul\":12286:12304   */\n      dup1\n        /* \"#utility.yul\":12276:12357   */\n      tag_291\n      jumpi\n        /* \"#utility.yul\":12342:12346   */\n      0x7f\n        /* \"#utility.yul\":12334:12340   */\n      dup3\n        /* \"#utility.yul\":12330:12347   */\n      and\n        /* \"#utility.yul\":12320:12347   */\n      swap2\n      pop\n        /* \"#utility.yul\":12276:12357   */\n    tag_291:\n        /* \"#utility.yul\":12404:12406   */\n      0x20\n        /* \"#utility.yul\":12396:12402   */\n      dup3\n        /* \"#utility.yul\":12393:12407   */\n      lt\n        /* \"#utility.yul\":12373:12391   */\n      dup2\n        /* \"#utility.yul\":12370:12408   */\n      sub\n        /* \"#utility.yul\":12367:12451   */\n      tag_292\n      jumpi\n        /* \"#utility.yul\":12423:12441   */\n      tag_293\n      tag_146\n      jump\t// in\n    tag_293:\n        /* \"#utility.yul\":12367:12451   */\n    tag_292:\n        /* \"#utility.yul\":12188:12457   */\n      pop\n        /* \"#utility.yul\":12137:12457   */\n      swap2\n      swap1\n      pop\n      jump\t// out\n        /* \"#utility.yul\":12463:12604   */\n    tag_147:\n        /* \"#utility.yul\":12512:12516   */\n      0x00\n        /* \"#utility.yul\":12535:12538   */\n      dup2\n        /* \"#utility.yul\":12527:12538   */\n      swap1\n      pop\n        /* \"#utility.yul\":12558:12561   */\n      dup2\n        /* \"#utility.yul\":12555:12556   */\n      0x00\n        /* \"#utility.yul\":12548:12562   */\n      mstore\n        /* \"#utility.yul\":12592:12596   */\n      0x20\n        /* \"#utility.yul\":12589:12590   */\n      0x00\n        /* \"#utility.yul\":12579:12597   */\n      keccak256\n        /* \"#utility.yul\":12571:12597   */\n      swap1\n      pop\n        /* \"#utility.yul\":12463:12604   */\n      swap2\n      swap1\n      pop\n      jump\t// out\n        /* \"#utility.yul\":12610:12703   */\n    tag_148:\n        /* \"#utility.yul\":12647:12653   */\n      0x00\n        /* \"#utility.yul\":12694:12696   */\n      0x20\n        /* \"#utility.yul\":12689:12691   */\n      0x1f\n        /* \"#utility.yul\":12682:12687   */\n      dup4\n        /* \"#utility.yul\":12678:12692   */\n      add\n        /* \"#utility.yul\":12674:12697   */\n      div\n        /* \"#utility.yul\":12664:12697   */\n      swap1\n      pop\n        /* \"#utility.yul\":12610:12703   */\n      swap2\n      swap1\n      pop\n      jump\t// out\n        /* \"#utility.yul\":12709:12816   */\n    tag_149:\n        /* \"#utility.yul\":12753:12761   */\n      0x00\n        /* \"#utility.yul\":12803:12808   */\n      dup3\n        /* \"#utility.yul\":12797:12801   */\n      dup3\n        /* \"#utility.yul\":12793:12809   */\n      shl\n        /* \"#utility.yul\":12772:12809   */\n      swap1\n      pop\n        /* \"#utility.yul\":12709:12816   */\n      swap3\n      swap2\n      pop\n      pop\n      jump\t// out\n        /* \"#utility.yul\":12822:13215   */\n    tag_150:\n        /* \"#utility.yul\":12891:12897   */\n      0x00\n        /* \"#utility.yul\":12941:12942   */\n      0x08\n        /* \"#utility.yul\":12929:12939   */\n      dup4\n        /* \"#utility.yul\":12925:12943   */\n      mul\n        /* \"#utility.yul\":12964:13061   */\n      tag_298\n        /* \"#utility.yul\":12994:13060   */\n      0xffffffffffffffffffffffffffffffffffffffffffffffffffffffffffffffff\n        /* \"#utility.yul\":12983:12992   */\n      dup3\n        /* \"#utility.yul\":12964:13061   */\n      tag_149\n      jump\t// in\n    tag_298:\n        /* \"#utility.yul\":13082:13121   */\n      tag_299\n        /* \"#utility.yul\":13112:13120   */\n      dup7\n        /* \"#utility.yul\":13101:13110   */\n      dup4\n        /* \"#utility.yul\":13082:13121   */\n      tag_149\n      jump\t// in\n    tag_299:\n        /* \"#utility.yul\":13070:13121   */\n      swap6\n      pop\n        /* \"#utility.yul\":13154:13158   */\n      dup1\n        /* \"#utility.yul\":13150:13159   */\n      not\n        /* \"#utility.yul\":13143:13148   */\n      dup5\n        /* \"#utility.yul\":13139:13160   */\n      and\n        /* \"#utility.yul\":13130:13160   */\n      swap4\n      pop\n        /* \"#utility.yul\":13203:13207   */\n      dup1\n        /* \"#utility.yul\":13193:13201   */\n      dup7\n        /* \"#utility.yul\":13189:13208   */\n      and\n        /* \"#utility.yul\":13182:13187   */\n      dup5\n        /* \"#utility.yul\":13179:13209   */\n      or\n        /* \"#utility.yul\":13169:13209   */\n      swap3\n      pop\n        /* \"#utility.yul\":12898:13215   */\n      pop\n      pop\n        /* \"#utility.yul\":12822:13215   */\n      swap4\n      swap3\n      pop\n      pop\n      pop\n      jump\t// out\n        /* \"#utility.yul\":13221:13281   */\n    tag_151:\n        /* \"#utility.yul\":13249:13252   */\n      0x00\n        /* \"#utility.yul\":13270:13275   */\n      dup2\n        /* \"#utility.yul\":13263:13275   */\n      swap1\n      pop\n        /* \"#utility.yul\":13221:13281   */\n      swap2\n      swap1\n      pop\n      jump\t// out\n        /* \"#utility.yul\":13287:13429   */\n    tag_152:\n        /* \"#utility.yul\":13337:13346   */\n      0x00\n        /* \"#utility.yul\":13370:13423   */\n      tag_302\n        /* \"#utility.yul\":13388:13422   */\n      tag_303\n        /* \"#utility.yul\":13397:13421   */\n      tag_304\n        /* \"#utility.yul\":13415:13420   */\n      dup5\n        /* \"#utility.yul\":13397:13421   */\n      tag_113\n      jump\t// in\n    tag_304:\n        /* \"#utility.yul\":13388:13422   */\n      tag_151\n      jump\t// in\n    tag_303:\n        /* \"#utility.yul\":13370:13423   */\n      tag_113\n      jump\t// in\n    tag_302:\n        /* \"#utility.yul\":13357:13423   */\n      swap1\n      pop\n        /* \"#utility.yul\":13287:13429   */\n      swap2\n      swap1\n      pop\n      jump\t// out\n        /* \"#utility.yul\":13435:13510   */\n    tag_153:\n        /* \"#utility.yul\":13478:13481   */\n      0x00\n        /* \"#utility.yul\":13499:13504   */\n      dup2\n        /* \"#utility.yul\":13492:13504   */\n      swap1\n      pop\n        /* \"#utility.yul\":13435:13510   */\n      swap2\n      swap1\n      pop\n      jump\t// out\n        /* \"#utility.yul\":13516:13785   */\n    tag_154:\n        /* \"#utility.yul\":13626:13665   */\n      tag_307\n        /* \"#utility.yul\":13657:13664   */\n      dup4\n        /* \"#utility.yul\":13626:13665   */\n      tag_152\n      jump\t// in\n    tag_307:\n        /* \"#utility.yul\":13687:13778   */\n      tag_308\n        /* \"#utility.yul\":13736:13777   */\n      tag_309\n        /* \"#utility.yul\":13760:13776   */\n      dup3\n        /* \"#utility.yul\":13736:13777   */\n      tag_153\n      jump\t// in\n    tag_309:\n        /* \"#utility.yul\":13728:13734   */\n      dup5\n        /* \"#utility.yul\":13721:13725   */\n      dup5\n        /* \"#utility.yul\":13715:13726   */\n      sload\n        /* \"#utility.yul\":13687:13778   */\n      tag_150\n      jump\t// in\n    tag_308:\n        /* \"#utility.yul\":13681:13685   */\n      dup3\n        /* \"#utility.yul\":13674:13779   */\n      sstore\n        /* \"#utility.yul\":13592:13785   */\n      pop\n        /* \"#utility.yul\":13516:13785   */\n      pop\n      pop\n      pop\n      jump\t// out\n        /* \"#utility.yul\":13791:13864   */\n    tag_155:\n        /* \"#utility.yul\":13836:13839   */\n      0x00\n        /* \"#utility.yul\":13791:13864   */\n      swap1\n      jump\t// out\n        /* \"#utility.yul\":13870:14059   */\n    tag_156:\n        /* \"#utility.yul\":13947:13979   */\n      tag_312\n      tag_155\n      jump\t// in\n    tag_312:\n        /* \"#utility.yul\":13988:14053   */\n      tag_313\n        /* \"#utility.yul\":14046:14052   */\n      dup2\n        /* \"#utility.yul\":14038:14044   */\n      dup5\n        /* \"#utility.yul\":14032:14036   */\n      dup5\n        /* \"#utility.yul\":13988:14053   */\n      tag_154\n      jump\t// in\n    tag_313:\n        /* \"#utility.yul\":13923:14059   */\n      pop\n        /* \"#utility.yul\":13870:14059   */\n      pop\n      pop\n      jump\t// out\n        /* \"#utility.yul\":14065:14251   */\n    tag_157:\n        /* \"#utility.yul\":14125:14245   */\n    tag_315:\n        /* \"#utility.yul\":14142:14145   */\n      dup2\n        /* \"#utility.yul\":14135:14140   */\n      dup2\n        /* \"#utility.yul\":14132:14146   */\n      lt\n        /* \"#utility.yul\":14125:14245   */\n      iszero\n      tag_317\n      jumpi\n        /* \"#utility.yul\":14196:14235   */\n      tag_318\n        /* \"#utility.yul\":14233:14234   */\n      0x00\n        /* \"#utility.yul\":14226:14231   */\n      dup3\n        /* \"#utility.yul\":14196:14235   */\n      tag_156\n      jump\t// in\n    tag_318:\n        /* \"#utility.yul\":14169:14170   */\n      0x01\n        /* \"#utility.yul\":14162:14167   */\n      dup2\n        /* \"#utility.yul\":14158:14171   */\n      add\n        /* \"#utility.yul\":14149:14171   */\n      swap1\n      pop\n        /* \"#utility.yul\":14125:14245   */\n      jump(tag_315)\n    tag_317:\n        /* \"#utility.yul\":14065:14251   */\n      pop\n      pop\n      jump\t// out\n        /* \"#utility.yul\":14257:14800   */\n    tag_158:\n        /* \"#utility.yul\":14358:14360   */\n      0x1f\n        /* \"#utility.yul\":14353:14356   */\n      dup3\n        /* \"#utility.yul\":14350:14361   */\n      gt\n        /* \"#utility.yul\":14347:14793   */\n      iszero\n      tag_320\n      jumpi\n        /* \"#utility.yul\":14392:14430   */\n      tag_321\n        /* \"#utility.yul\":14424:14429   */\n      dup2\n        /* \"#utility.yul\":14392:14430   */\n      tag_147\n      jump\t// in\n    tag_321:\n        /* \"#utility.yul\":14476:14505   */\n      tag_322\n        /* \"#utility.yul\":14494:14504   */\n      dup5\n        /* \"#utility.yul\":14476:14505   */\n      tag_148\n      jump\t// in\n    tag_322:\n        /* \"#utility.yul\":14466:14474   */\n      dup2\n        /* \"#utility.yul\":14462:14506   */\n      add\n        /* \"#utility.yul\":14659:14661   */\n      0x20\n        /* \"#utility.yul\":14647:14657   */\n      dup6\n        /* \"#utility.yul\":14644:14662   */\n      lt\n        /* \"#utility.yul\":14641:14690   */\n      iszero\n      tag_323\n      jumpi\n        /* \"#utility.yul\":14680:14688   */\n      dup2\n        /* \"#utility.yul\":14665:14688   */\n      swap1\n      pop\n        /* \"#utility.yul\":14641:14690   */\n    tag_323:\n        /* \"#utility.yul\":14703:14783   */\n      tag_324\n        /* \"#utility.yul\":14759:14781   */\n      tag_325\n        /* \"#utility.yul\":14777:14780   */\n      dup6\n        /* \"#utility.yul\":14759:14781   */\n      tag_148\n      jump\t// in\n    tag_325:\n        /* \"#utility.yul\":14749:14757   */\n      dup4\n        /* \"#utility.yul\":14745:14782   */\n      add\n        /* \"#utility.yul\":14732:14743   */\n      dup3\n        /* \"#utility.yul\":14703:14783   */\n      tag_157\n      jump\t// in\n    tag_324:\n        /* \"#utility.yul\":14362:14793   */\n      pop\n      pop\n        /* \"#utility.yul\":14347:14793   */\n    tag_320:\n        /* \"#utility.yul\":14257:14800   */\n      pop\n      pop\n      pop\n      jump\t// out\n        /* \"#utility.yul\":14806:14923   */\n    tag_159:\n        /* \"#utility.yul\":14860:14868   */\n      0x00\n        /* \"#utility.yul\":14910:14915   */\n      dup3\n        /* \"#utility.yul\":14904:14908   */\n      dup3\n        /* \"#utility.yul\":14900:14916   */\n      shr\n        /* \"#utility.yul\":14879:14916   */\n      swap1\n      pop\n        /* \"#utility.yul\":14806:14923   */\n      swap3\n      swap2\n      pop\n      pop\n      jump\t// out\n        /* \"#utility.yul\":14929:15098   */\n    tag_160:\n        /* \"#utility.yul\":14973:14979   */\n      0x00\n        /* \"#utility.yul\":15006:15057   */\n      tag_328\n        /* \"#utility.yul\":15054:15055   */\n      0x00\n        /* \"#utility.yul\":15050:15056   */\n      not\n        /* \"#utility.yul\":15042:15047   */\n      dup5\n        /* \"#utility.yul\":15039:15040   */\n      0x08\n        /* \"#utility.yul\":15035:15048   */\n      mul\n        /* \"#utility.yul\":15006:15057   */\n      tag_159\n      jump\t// in\n    tag_328:\n        /* \"#utility.yul\":15002:15058   */\n      not\n        /* \"#utility.yul\":15087:15091   */\n      dup1\n        /* \"#utility.yul\":15081:15085   */\n      dup4\n        /* \"#utility.yul\":15077:15092   */\n      and\n        /* \"#utility.yul\":15067:15092   */\n      swap2\n      pop\n        /* \"#utility.yul\":14980:15098   */\n      pop\n        /* \"#utility.yul\":14929:15098   */\n      swap3\n      swap2\n      pop\n      pop\n      jump\t// out\n        /* \"#utility.yul\":15103:15398   */\n    tag_161:\n        /* \"#utility.yul\":15179:15183   */\n      0x00\n        /* \"#utility.yul\":15325:15354   */\n      tag_330\n        /* \"#utility.yul\":15350:15353   */\n      dup4\n        /* \"#utility.yul\":15344:15348   */\n      dup4\n        /* \"#utility.yul\":15325:15354   */\n      tag_160\n      jump\t// in\n    tag_330:\n        /* \"#utility.yul\":15317:15354   */\n      swap2\n      pop\n        /* \"#utility.yul\":15387:15390   */\n      dup3\n        /* \"#utility.yul\":15384:15385   */\n      0x02\n        /* \"#utility.yul\":15380:15391   */\n      mul\n        /* \"#utility.yul\":15374:15378   */\n      dup3\n        /* \"#utility.yul\":15371:15392   */\n      or\n        /* \"#utility.yul\":15363:15392   */\n      swap1\n      pop\n        /* \"#utility.yul\":15103:15398   */\n      swap3\n      swap2\n      pop\n      pop\n      jump\t// out\n        /* \"#utility.yul\":15403:16798   */\n    tag_94:\n        /* \"#utility.yul\":15520:15557   */\n      tag_332\n        /* \"#utility.yul\":15553:15556   */\n      dup3\n        /* \"#utility.yul\":15520:15557   */\n      tag_124\n      jump\t// in\n    tag_332:\n        /* \"#utility.yul\":15622:15640   */\n      0xffffffffffffffff\n        /* \"#utility.yul\":15614:15620   */\n      dup2\n        /* \"#utility.yul\":15611:15641   */\n      gt\n        /* \"#utility.yul\":15608:15664   */\n      iszero\n      tag_333\n      jumpi\n        /* \"#utility.yul\":15644:15662   */\n      tag_334\n      tag_131\n      jump\t// in\n    tag_334:\n        /* \"#utility.yul\":15608:15664   */\n    tag_333:\n        /* \"#utility.yul\":15688:15726   */\n      tag_335\n        /* \"#utility.yul\":15720:15724   */\n      dup3\n        /* \"#utility.yul\":15714:15725   */\n      sload\n        /* \"#utility.yul\":15688:15726   */\n      tag_84\n      jump\t// in\n    tag_335:\n        /* \"#utility.yul\":15773:15840   */\n      tag_336\n        /* \"#utility.yul\":15833:15839   */\n      dup3\n        /* \"#utility.yul\":15825:15831   */\n      dup3\n        /* \"#utility.yul\":15819:15823   */\n      dup6\n        /* \"#utility.yul\":15773:15840   */\n      tag_158\n      jump\t// in\n    tag_336:\n        /* \"#utility.yul\":15867:15868   */\n      0x00\n        /* \"#utility.yul\":15891:15895   */\n      0x20\n        /* \"#utility.yul\":15878:15895   */\n      swap1\n      pop\n        /* \"#utility.yul\":15923:15925   */\n      0x1f\n        /* \"#utility.yul\":15915:15921   */\n      dup4\n        /* \"#utility.yul\":15912:15926   */\n      gt\n        /* \"#utility.yul\":15940:15941   */\n      0x01\n        /* \"#utility.yul\":15935:16553   */\n      dup2\n      eq\n      tag_338\n      jumpi\n        /* \"#utility.yul\":16597:16598   */\n      0x00\n        /* \"#utility.yul\":16614:16620   */\n      dup5\n        /* \"#utility.yul\":16611:16688   */\n      iszero\n      tag_339\n      jumpi\n        /* \"#utility.yul\":16663:16672   */\n      dup3\n        /* \"#utility.yul\":16658:16661   */\n      dup8\n        /* \"#utility.yul\":16654:16673   */\n      add\n        /* \"#utility.yul\":16648:16674   */\n      mload\n        /* \"#utility.yul\":16639:16674   */\n      swap1\n      pop\n        /* \"#utility.yul\":16611:16688   */\n    tag_339:\n        /* \"#utility.yul\":16714:16781   */\n      tag_340\n        /* \"#utility.yul\":16774:16780   */\n      dup6\n        /* \"#utility.yul\":16767:16772   */\n      dup3\n        /* \"#utility.yul\":16714:16781   */\n      tag_161\n      jump\t// in\n    tag_340:\n        /* \"#utility.yul\":16708:16712   */\n      dup7\n        /* \"#utility.yul\":16701:16782   */\n      sstore\n        /* \"#utility.yul\":16570:16792   */\n      pop\n        /* \"#utility.yul\":15905:16792   */\n      jump(tag_337)\n        /* \"#utility.yul\":15935:16553   */\n    tag_338:\n        /* \"#utility.yul\":15987:15991   */\n      0x1f\n        /* \"#utility.yul\":15983:15992   */\n      not\n        /* \"#utility.yul\":15975:15981   */\n      dup5\n        /* \"#utility.yul\":15971:15993   */\n      and\n        /* \"#utility.yul\":16021:16058   */\n      tag_341\n        /* \"#utility.yul\":16053:16057   */\n      dup7\n        /* \"#utility.yul\":16021:16058   */\n      tag_147\n      jump\t// in\n    tag_341:\n        /* \"#utility.yul\":16080:16081   */\n      0x00\n        /* \"#utility.yul\":16094:16302   */\n    tag_342:\n        /* \"#utility.yul\":16108:16115   */\n      dup3\n        /* \"#utility.yul\":16105:16106   */\n      dup2\n        /* \"#utility.yul\":16102:16116   */\n      lt\n        /* \"#utility.yul\":16094:16302   */\n      iszero\n      tag_344\n      jumpi\n        /* \"#utility.yul\":16187:16196   */\n      dup5\n        /* \"#utility.yul\":16182:16185   */\n      dup10\n        /* \"#utility.yul\":16178:16197   */\n      add\n        /* \"#utility.yul\":16172:16198   */\n      mload\n        /* \"#utility.yul\":16164:16170   */\n      dup3\n        /* \"#utility.yul\":16157:16199   */\n      sstore\n        /* \"#utility.yul\":16238:16239   */\n      0x01\n        /* \"#utility.yul\":16230:16236   */\n      dup3\n        /* \"#utility.yul\":16226:16240   */\n      add\n        /* \"#utility.yul\":16216:16240   */\n      swap2\n      pop\n        /* \"#utility.yul\":16285:16287   */\n      0x20\n        /* \"#utility.yul\":16274:16283   */\n      dup6\n        /* \"#utility.yul\":16270:16288   */\n      add\n        /* \"#utility.yul\":16257:16288   */\n      swap5\n      pop\n        /* \"#utility.yul\":16131:16135   */\n      0x20\n        /* \"#utility.yul\":16128:16129   */\n      dup2\n        /* \"#utility.yul\":16124:16136   */\n      add\n        /* \"#utility.yul\":16119:16136   */\n      swap1\n      pop\n        /* \"#utility.yul\":16094:16302   */\n      jump(tag_342)\n    tag_344:\n        /* \"#utility.yul\":16330:16336   */\n      dup7\n        /* \"#utility.yul\":16321:16328   */\n      dup4\n        /* \"#utility.yul\":16318:16337   */\n      lt\n        /* \"#utility.yul\":16315:16494   */\n      iszero\n      tag_345\n      jumpi\n        /* \"#utility.yul\":16388:16397   */\n      dup5\n        /* \"#utility.yul\":16383:16386   */\n      dup10\n        /* \"#utility.yul\":16379:16398   */\n      add\n        /* \"#utility.yul\":16373:16399   */\n      mload\n        /* \"#utility.yul\":16431:16479   */\n      tag_346\n        /* \"#utility.yul\":16473:16477   */\n      0x1f\n        /* \"#utility.yul\":16465:16471   */\n      dup10\n        /* \"#utility.yul\":16461:16478   */\n      and\n        /* \"#utility.yul\":16450:16459   */\n      dup3\n        /* \"#utility.yul\":16431:16479   */\n      tag_160\n      jump\t// in\n    tag_346:\n        /* \"#utility.yul\":16423:16429   */\n      dup4\n        /* \"#utility.yul\":16416:16480   */\n      sstore\n        /* \"#utility.yul\":16338:16494   */\n      pop\n        /* \"#utility.yul\":16315:16494   */\n    tag_345:\n        /* \"#utility.yul\":16540:16541   */\n      0x01\n        /* \"#utility.yul\":16536:16537   */\n      0x02\n        /* \"#utility.yul\":16528:16534   */\n      dup9\n        /* \"#utility.yul\":16524:16538   */\n      mul\n        /* \"#utility.yul\":16520:16542   */\n      add\n        /* \"#utility.yul\":16514:16518   */\n      dup9\n        /* \"#utility.yul\":16507:16543   */\n      sstore\n        /* \"#utility.yul\":15942:16553   */\n      pop\n      pop\n      pop\n        /* \"#utility.yul\":15905:16792   */\n    tag_337:\n      pop\n        /* \"#utility.yul\":15495:16798   */\n      pop\n      pop\n      pop\n        /* \"#utility.yul\":15403:16798   */\n      pop\n      pop\n      jump\t// out\n        /* \"#utility.yul\":16804:17037   */\n    tag_96:\n        /* \"#utility.yul\":16843:16846   */\n      0x00\n        /* \"#utility.yul\":16866:16890   */\n      tag_348\n        /* \"#utility.yul\":16884:16889   */\n      dup3\n        /* \"#utility.yul\":16866:16890   */\n      tag_113\n      jump\t// in\n    tag_348:\n        /* \"#utility.yul\":16857:16890   */\n      swap2\n      pop\n        /* \"#utility.yul\":16912:16978   */\n      0xffffffffffffffffffffffffffffffffffffffffffffffffffffffffffffffff\n        /* \"#utility.yul\":16905:16910   */\n      dup3\n        /* \"#utility.yul\":16902:16979   */\n      sub\n        /* \"#utility.yul\":16899:17002   */\n      tag_349\n      jumpi\n        /* \"#utility.yul\":16982:17000   */\n      tag_350\n      tag_143\n      jump\t// in\n    tag_350:\n        /* \"#utility.yul\":16899:17002   */\n    tag_349:\n        /* \"#utility.yul\":17029:17030   */\n      0x01\n        /* \"#utility.yul\":17022:17027   */\n      dup3\n        /* \"#utility.yul\":17018:17031   */\n      add\n        /* \"#utility.yul\":17011:17031   */\n      swap1\n      pop\n        /* \"#utility.yul\":16804:17037   */\n      swap2\n      swap1\n      pop\n      jump\t// out\n        /* \"#utility.yul\":17043:17214   */\n    tag_162:\n        /* \"#utility.yul\":17183:17206   */\n      0x596f7520617265206e6f74206120646f6e61746f720000000000000000000000\n        /* \"#utility.yul\":17179:17180   */\n      0x00\n        /* \"#utility.yul\":17171:17177   */\n      dup3\n        /* \"#utility.yul\":17167:17181   */\n      add\n        /* \"#utility.yul\":17160:17207   */\n      mstore\n        /* \"#utility.yul\":17043:17214   */\n      pop\n      jump\t// out\n        /* \"#utility.yul\":17220:17586   */\n    tag_163:\n        /* \"#utility.yul\":17362:17365   */\n      0x00\n        /* \"#utility.yul\":17383:17450   */\n      tag_353\n        /* \"#utility.yul\":17447:17449   */\n      0x15\n        /* \"#utility.yul\":17442:17445   */\n      dup4\n        /* \"#utility.yul\":17383:17450   */\n      tag_125\n      jump\t// in\n    tag_353:\n        /* \"#utility.yul\":17376:17450   */\n      swap2\n      pop\n        /* \"#utility.yul\":17459:17552   */\n      tag_354\n        /* \"#utility.yul\":17548:17551   */\n      dup3\n        /* \"#utility.yul\":17459:17552   */\n      tag_162\n      jump\t// in\n    tag_354:\n        /* \"#utility.yul\":17577:17579   */\n      0x20\n        /* \"#utility.yul\":17572:17575   */\n      dup3\n        /* \"#utility.yul\":17568:17580   */\n      add\n        /* \"#utility.yul\":17561:17580   */\n      swap1\n      pop\n        /* \"#utility.yul\":17220:17586   */\n      swap2\n      swap1\n      pop\n      jump\t// out\n        /* \"#utility.yul\":17592:18011   */\n    tag_100:\n        /* \"#utility.yul\":17758:17762   */\n      0x00\n        /* \"#utility.yul\":17796:17798   */\n      0x20\n        /* \"#utility.yul\":17785:17794   */\n      dup3\n        /* \"#utility.yul\":17781:17799   */\n      add\n        /* \"#utility.yul\":17773:17799   */\n      swap1\n      pop\n        /* \"#utility.yul\":17845:17854   */\n      dup2\n        /* \"#utility.yul\":17839:17843   */\n      dup2\n        /* \"#utility.yul\":17835:17855   */\n      sub\n        /* \"#utility.yul\":17831:17832   */\n      0x00\n        /* \"#utility.yul\":17820:17829   */\n      dup4\n        /* \"#utility.yul\":17816:17833   */\n      add\n        /* \"#utility.yul\":17809:17856   */\n      mstore\n        /* \"#utility.yul\":17873:18004   */\n      tag_356\n        /* \"#utility.yul\":17999:18003   */\n      dup2\n        /* \"#utility.yul\":17873:18004   */\n      tag_163\n      jump\t// in\n    tag_356:\n        /* \"#utility.yul\":17865:18004   */\n      swap1\n      pop\n        /* \"#utility.yul\":17592:18011   */\n      swap2\n      swap1\n      pop\n      jump\t// out\n        /* \"#utility.yul\":18017:18237   */\n    tag_164:\n        /* \"#utility.yul\":18157:18191   */\n      0x596f7520616c726561647920766f746564206f6e207468697320726571756573\n        /* \"#utility.yul\":18153:18154   */\n      0x00\n        /* \"#utility.yul\":18145:18151   */\n      dup3\n        /* \"#utility.yul\":18141:18155   */\n      add\n        /* \"#utility.yul\":18134:18192   */\n      mstore\n        /* \"#utility.yul\":18226:18229   */\n      0x7400000000000000000000000000000000000000000000000000000000000000\n        /* \"#utility.yul\":18221:18223   */\n      0x20\n        /* \"#utility.yul\":18213:18219   */\n      dup3\n        /* \"#utility.yul\":18209:18224   */\n      add\n        /* \"#utility.yul\":18202:18230   */\n      mstore\n        /* \"#utility.yul\":18017:18237   */\n      pop\n      jump\t// out\n        /* \"#utility.yul\":18243:18609   */\n    tag_165:\n        /* \"#utility.yul\":18385:18388   */\n      0x00\n        /* \"#utility.yul\":18406:18473   */\n      tag_359\n        /* \"#utility.yul\":18470:18472   */\n      0x21\n        /* \"#utility.yul\":18465:18468   */\n      dup4\n        /* \"#utility.yul\":18406:18473   */\n      tag_125\n      jump\t// in\n    tag_359:\n        /* \"#utility.yul\":18399:18473   */\n      swap2\n      pop\n        /* \"#utility.yul\":18482:18575   */\n      tag_360\n        /* \"#utility.yul\":18571:18574   */\n      dup3\n        /* \"#utility.yul\":18482:18575   */\n      tag_164\n      jump\t// in\n    tag_360:\n        /* \"#utility.yul\":18600:18602   */\n      0x40\n        /* \"#utility.yul\":18595:18598   */\n      dup3\n        /* \"#utility.yul\":18591:18603   */\n      add\n        /* \"#utility.yul\":18584:18603   */\n      swap1\n      pop\n        /* \"#utility.yul\":18243:18609   */\n      swap2\n      swap1\n      pop\n      jump\t// out\n        /* \"#utility.yul\":18615:19034   */\n    tag_103:\n        /* \"#utility.yul\":18781:18785   */\n      0x00\n        /* \"#utility.yul\":18819:18821   */\n      0x20\n        /* \"#utility.yul\":18808:18817   */\n      dup3\n        /* \"#utility.yul\":18804:18822   */\n      add\n        /* \"#utility.yul\":18796:18822   */\n      swap1\n      pop\n        /* \"#utility.yul\":18868:18877   */\n      dup2\n        /* \"#utility.yul\":18862:18866   */\n      dup2\n        /* \"#utility.yul\":18858:18878   */\n      sub\n        /* \"#utility.yul\":18854:18855   */\n      0x00\n        /* \"#utility.yul\":18843:18852   */\n      dup4\n        /* \"#utility.yul\":18839:18856   */\n      add\n        /* \"#utility.yul\":18832:18879   */\n      mstore\n        /* \"#utility.yul\":18896:19027   */\n      tag_362\n        /* \"#utility.yul\":19022:19026   */\n      dup2\n        /* \"#utility.yul\":18896:19027   */\n      tag_165\n      jump\t// in\n    tag_362:\n        /* \"#utility.yul\":18888:19027   */\n      swap1\n      pop\n        /* \"#utility.yul\":18615:19034   */\n      swap2\n      swap1\n      pop\n      jump\t// out\n        /* \"#utility.yul\":19040:19210   */\n    tag_166:\n        /* \"#utility.yul\":19180:19202   */\n      0x546f6f206c6f7720636f6e747269627574696f6e000000000000000000000000\n        /* \"#utility.yul\":19176:19177   */\n      0x00\n        /* \"#utility.yul\":19168:19174   */\n      dup3\n        /* \"#utility.yul\":19164:19178   */\n      add\n        /* \"#utility.yul\":19157:19203   */\n      mstore\n        /* \"#utility.yul\":19040:19210   */\n      pop\n      jump\t// out\n        /* \"#utility.yul\":19216:19582   */\n    tag_167:\n        /* \"#utility.yul\":19358:19361   */\n      0x00\n        /* \"#utility.yul\":19379:19446   */\n      tag_365\n        /* \"#utility.yul\":19443:19445   */\n      0x14\n        /* \"#utility.yul\":19438:19441   */\n      dup4\n        /* \"#utility.yul\":19379:19446   */\n      tag_125\n      jump\t// in\n    tag_365:\n        /* \"#utility.yul\":19372:19446   */\n      swap2\n      pop\n        /* \"#utility.yul\":19455:19548   */\n      tag_366\n        /* \"#utility.yul\":19544:19547   */\n      dup3\n        /* \"#utility.yul\":19455:19548   */\n      tag_166\n      jump\t// in\n    tag_366:\n        /* \"#utility.yul\":19573:19575   */\n      0x20\n        /* \"#utility.yul\":19568:19571   */\n      dup3\n        /* \"#utility.yul\":19564:19576   */\n      add\n        /* \"#utility.yul\":19557:19576   */\n      swap1\n      pop\n        /* \"#utility.yul\":19216:19582   */\n      swap2\n      swap1\n      pop\n      jump\t// out\n        /* \"#utility.yul\":19588:20007   */\n    tag_108:\n        /* \"#utility.yul\":19754:19758   */\n      0x00\n        /* \"#utility.yul\":19792:19794   */\n      0x20\n        /* \"#utility.yul\":19781:19790   */\n      dup3\n        /* \"#utility.yul\":19777:19795   */\n      add\n        /* \"#utility.yul\":19769:19795   */\n      swap1\n      pop\n        /* \"#utility.yul\":19841:19850   */\n      dup2\n        /* \"#utility.yul\":19835:19839   */\n      dup2\n        /* \"#utility.yul\":19831:19851   */\n      sub\n        /* \"#utility.yul\":19827:19828   */\n      0x00\n        /* \"#utility.yul\":19816:19825   */\n      dup4\n        /* \"#utility.yul\":19812:19829   */\n      add\n        /* \"#utility.yul\":19805:19852   */\n      mstore\n        /* \"#utility.yul\":19869:20000   */\n      tag_368\n        /* \"#utility.yul\":19995:19999   */\n      dup2\n        /* \"#utility.yul\":19869:20000   */\n      tag_167\n      jump\t// in\n    tag_368:\n        /* \"#utility.yul\":19861:20000   */\n      swap1\n      pop\n        /* \"#utility.yul\":19588:20007   */\n      swap2\n      swap1\n      pop\n      jump\t// out\n\n    auxdata: 0xa26469706673582212200047e569d4bb37036944449a5acaf09a84c59e9499203a736e61f297d25062a764736f6c63430008110033\n}\n","bytecode":{"linkReferences":{},"object":"60806040523480156200001157600080fd5b50604051620016673803806200166783398181016040528101906200003791906200012c565b80600260006101000a81548173ffffffffffffffffffffffffffffffffffffffff021916908373ffffffffffffffffffffffffffffffffffffffff16021790555081600381905550505062000173565b600080fd5b6000819050919050565b620000a1816200008c565b8114620000ad57600080fd5b50565b600081519050620000c18162000096565b92915050565b600073ffffffffffffffffffffffffffffffffffffffff82169050919050565b6000620000f482620000c7565b9050919050565b6200010681620000e7565b81146200011257600080fd5b50565b6000815190506200012681620000fb565b92915050565b6000806040838503121562000146576200014562000087565b5b60006200015685828601620000b0565b9250506020620001698582860162000115565b9150509250929050565b6114e480620001836000396000f3fe60806040526004361061009c5760003560e01c806381d12c581161006457806381d12c581461018c57806382fde093146101cd5780638a9cfd55146101f8578063937e09b114610221578063984261ae1461024c578063d7bb99ba146102755761009c565b806303441006146100a15780630a144391146100ca5780633fad1834146101075780634051ddac14610132578063481c6a7514610161575b600080fd5b3480156100ad57600080fd5b506100c860048036038101906100c391906109dc565b61027f565b005b3480156100d657600080fd5b506100f160048036038101906100ec9190610a67565b61045c565b6040516100fe9190610aaf565b60405180910390f35b34801561011357600080fd5b5061011c61047c565b6040516101299190610ad9565b60405180910390f35b34801561013e57600080fd5b50610147610485565b604051610158959493929190610b03565b60405180910390f35b34801561016d57600080fd5b506101766104cb565b6040516101839190610b56565b60405180910390f35b34801561019857600080fd5b506101b360048036038101906101ae91906109dc565b6104f1565b6040516101c4959493929190610c01565b60405180910390f35b3480156101d957600080fd5b506101e26105dc565b6040516101ef9190610ad9565b60405180910390f35b34801561020457600080fd5b5061021f600480360381019061021a9190610d90565b6105e2565b005b34801561022d57600080fd5b5061023661072c565b6040516102439190610ad9565b60405180910390f35b34801561025857600080fd5b50610273600480360381019061026e91906109dc565b610732565b005b61027d6108dc565b005b600260009054906101000a900473ffffffffffffffffffffffffffffffffffffffff1673ffffffffffffffffffffffffffffffffffffffff163373ffffffffffffffffffffffffffffffffffffffff161461030f576040517f08c379a000000000000000000000000000000000000000000000000000000000815260040161030690610e4b565b60405180910390fd5b60006001600083815260200190815260200160002090508060020160149054906101000a900460ff1615610378576040517f08c379a000000000000000000000000000000000000000000000000000000000815260040161036f90610edd565b60405180910390fd5b60026005546103879190610f5b565b8160030154116103cc576040517f08c379a00000000000000000000000000000000000000000000000000000000081526004016103c390610ffe565b60405180910390fd5b8060020160009054906101000a900473ffffffffffffffffffffffffffffffffffffffff1673ffffffffffffffffffffffffffffffffffffffff166108fc82600101549081150290604051600060405180830381858888f1935050505015801561043a573d6000803e3d6000fd5b5060018160020160146101000a81548160ff0219169083151502179055505050565b60046020528060005260406000206000915054906101000a900460ff1681565b60008054905090565b600080600080600060035447600054600554600260009054906101000a900473ffffffffffffffffffffffffffffffffffffffff16945094509450945094509091929394565b600260009054906101000a900473ffffffffffffffffffffffffffffffffffffffff1681565b60016020528060005260406000206000915090508060000180546105149061104d565b80601f01602080910402602001604051908101604052809291908181526020018280546105409061104d565b801561058d5780601f106105625761010080835404028352916020019161058d565b820191906000526020600020905b81548152906001019060200180831161057057829003601f168201915b5050505050908060010154908060020160009054906101000a900473ffffffffffffffffffffffffffffffffffffffff16908060020160149054906101000a900460ff16908060030154905085565b60055481565b600260009054906101000a900473ffffffffffffffffffffffffffffffffffffffff1673ffffffffffffffffffffffffffffffffffffffff163373ffffffffffffffffffffffffffffffffffffffff1614610672576040517f08c379a000000000000000000000000000000000000000000000000000000000815260040161066990610e4b565b60405180910390fd5b6000600160008054815260200190815260200160002090508381600001908161069b919061122a565b50828160010181905550818160020160006101000a81548173ffffffffffffffffffffffffffffffffffffffff021916908373ffffffffffffffffffffffffffffffffffffffff16021790555060008160020160146101000a81548160ff02191690831515021790555060008160030181905550600080815480929190610721906112fc565b919050555050505050565b60035481565b6000600160008381526020019081526020016000209050600460003373ffffffffffffffffffffffffffffffffffffffff1673ffffffffffffffffffffffffffffffffffffffff16815260200190815260200160002060009054906101000a900460ff166107d5576040517f08c379a00000000000000000000000000000000000000000000000000000000081526004016107cc90611390565b60405180910390fd5b8060040160003373ffffffffffffffffffffffffffffffffffffffff1673ffffffffffffffffffffffffffffffffffffffff16815260200190815260200160002060009054906101000a900460ff1615610864576040517f08c379a000000000000000000000000000000000000000000000000000000000815260040161085b90611422565b60405180910390fd5b60018160040160003373ffffffffffffffffffffffffffffffffffffffff1673ffffffffffffffffffffffffffffffffffffffff16815260200190815260200160002060006101000a81548160ff0219169083151502179055508060030160008154809291906108d3906112fc565b91905055505050565b6003543411610920576040517f08c379a00000000000000000000000000000000000000000000000000000000081526004016109179061148e565b60405180910390fd5b6001600460003373ffffffffffffffffffffffffffffffffffffffff1673ffffffffffffffffffffffffffffffffffffffff16815260200190815260200160002060006101000a81548160ff0219169083151502179055506005600081548092919061098b906112fc565b9190505550565b6000604051905090565b600080fd5b600080fd5b6000819050919050565b6109b9816109a6565b81146109c457600080fd5b50565b6000813590506109d6816109b0565b92915050565b6000602082840312156109f2576109f161099c565b5b6000610a00848285016109c7565b91505092915050565b600073ffffffffffffffffffffffffffffffffffffffff82169050919050565b6000610a3482610a09565b9050919050565b610a4481610a29565b8114610a4f57600080fd5b50565b600081359050610a6181610a3b565b92915050565b600060208284031215610a7d57610a7c61099c565b5b6000610a8b84828501610a52565b91505092915050565b60008115159050919050565b610aa981610a94565b82525050565b6000602082019050610ac46000830184610aa0565b92915050565b610ad3816109a6565b82525050565b6000602082019050610aee6000830184610aca565b92915050565b610afd81610a29565b82525050565b600060a082019050610b186000830188610aca565b610b256020830187610aca565b610b326040830186610aca565b610b3f6060830185610aca565b610b4c6080830184610af4565b9695505050505050565b6000602082019050610b6b6000830184610af4565b92915050565b600081519050919050565b600082825260208201905092915050565b60005b83811015610bab578082015181840152602081019050610b90565b60008484015250505050565b6000601f19601f8301169050919050565b6000610bd382610b71565b610bdd8185610b7c565b9350610bed818560208601610b8d565b610bf681610bb7565b840191505092915050565b600060a0820190508181036000830152610c1b8188610bc8565b9050610c2a6020830187610aca565b610c376040830186610af4565b610c446060830185610aa0565b610c516080830184610aca565b9695505050505050565b600080fd5b600080fd5b7f4e487b7100000000000000000000000000000000000000000000000000000000600052604160045260246000fd5b610c9d82610bb7565b810181811067ffffffffffffffff82111715610cbc57610cbb610c65565b5b80604052505050565b6000610ccf610992565b9050610cdb8282610c94565b919050565b600067ffffffffffffffff821115610cfb57610cfa610c65565b5b610d0482610bb7565b9050602081019050919050565b82818337600083830152505050565b6000610d33610d2e84610ce0565b610cc5565b905082815260208101848484011115610d4f57610d4e610c60565b5b610d5a848285610d11565b509392505050565b600082601f830112610d7757610d76610c5b565b5b8135610d87848260208601610d20565b91505092915050565b600080600060608486031215610da957610da861099c565b5b600084013567ffffffffffffffff811115610dc757610dc66109a1565b5b610dd386828701610d62565b9350506020610de4868287016109c7565b9250506040610df586828701610a52565b9150509250925092565b7f596f75277265206e6f7420746865206d616e6167657200000000000000000000600082015250565b6000610e35601683610b7c565b9150610e4082610dff565b602082019050919050565b60006020820190508181036000830152610e6481610e28565b9050919050565b7f546865207265717565737420697320616c7265616479206d61726b656420617360008201527f20636f6d706c6574656400000000000000000000000000000000000000000000602082015250565b6000610ec7602a83610b7c565b9150610ed282610e6b565b604082019050919050565b60006020820190508181036000830152610ef681610eba565b9050919050565b7f4e487b7100000000000000000000000000000000000000000000000000000000600052601260045260246000fd5b7f4e487b7100000000000000000000000000000000000000000000000000000000600052601160045260246000fd5b6000610f66826109a6565b9150610f71836109a6565b925082610f8157610f80610efd565b5b828204905092915050565b7f596f7520646f6e2774206861766520656e6f75676820617070726f766572732060008201527f7965740000000000000000000000000000000000000000000000000000000000602082015250565b6000610fe8602383610b7c565b9150610ff382610f8c565b604082019050919050565b6000602082019050818103600083015261101781610fdb565b9050919050565b7f4e487b7100000000000000000000000000000000000000000000000000000000600052602260045260246000fd5b6000600282049050600182168061106557607f821691505b6020821081036110785761107761101e565b5b50919050565b60008190508160005260206000209050919050565b60006020601f8301049050919050565b600082821b905092915050565b6000600883026110e07fffffffffffffffffffffffffffffffffffffffffffffffffffffffffffffffff826110a3565b6110ea86836110a3565b95508019841693508086168417925050509392505050565b6000819050919050565b600061112761112261111d846109a6565b611102565b6109a6565b9050919050565b6000819050919050565b6111418361110c565b61115561114d8261112e565b8484546110b0565b825550505050565b600090565b61116a61115d565b611175818484611138565b505050565b5b818110156111995761118e600082611162565b60018101905061117b565b5050565b601f8211156111de576111af8161107e565b6111b884611093565b810160208510156111c7578190505b6111db6111d385611093565b83018261117a565b50505b505050565b600082821c905092915050565b6000611201600019846008026111e3565b1980831691505092915050565b600061121a83836111f0565b9150826002028217905092915050565b61123382610b71565b67ffffffffffffffff81111561124c5761124b610c65565b5b611256825461104d565b61126182828561119d565b600060209050601f8311600181146112945760008415611282578287015190505b61128c858261120e565b8655506112f4565b601f1984166112a28661107e565b60005b828110156112ca578489015182556001820191506020850194506020810190506112a5565b868310156112e757848901516112e3601f8916826111f0565b8355505b6001600288020188555050505b505050505050565b6000611307826109a6565b91507fffffffffffffffffffffffffffffffffffffffffffffffffffffffffffffffff820361133957611338610f2c565b5b600182019050919050565b7f596f7520617265206e6f74206120646f6e61746f720000000000000000000000600082015250565b600061137a601583610b7c565b915061138582611344565b602082019050919050565b600060208201905081810360008301526113a98161136d565b9050919050565b7f596f7520616c726561647920766f746564206f6e20746869732072657175657360008201527f7400000000000000000000000000000000000000000000000000000000000000602082015250565b600061140c602183610b7c565b9150611417826113b0565b604082019050919050565b6000602082019050818103600083015261143b816113ff565b9050919050565b7f546f6f206c6f7720636f6e747269627574696f6e000000000000000000000000600082015250565b6000611478601483610b7c565b915061148382611442565b602082019050919050565b600060208201905081810360008301526114a78161146b565b905091905056fea26469706673582212200047e569d4bb37036944449a5acaf09a84c59e9499203a736e61f297d25062a764736f6c63430008110033","opcodes":"PUSH1 0x80 PUSH1 0x40 MSTORE CALLVALUE DUP1 ISZERO PUSH3 0x11 JUMPI PUSH1 0x0 DUP1 REVERT JUMPDEST POP PUSH1 0x40 MLOAD PUSH3 0x1667 CODESIZE SUB DUP1 PUSH3 0x1667 DUP4 CODECOPY DUP2 DUP2 ADD PUSH1 0x40 MSTORE DUP2 ADD SWAP1 PUSH3 0x37 SWAP2 SWAP1 PUSH3 0x12C JUMP JUMPDEST DUP1 PUSH1 0x2 PUSH1 0x0 PUSH2 0x100 EXP DUP2 SLOAD DUP2 PUSH20 0xFFFFFFFFFFFFFFFFFFFFFFFFFFFFFFFFFFFFFFFF MUL NOT AND SWAP1 DUP4 PUSH20 0xFFFFFFFFFFFFFFFFFFFFFFFFFFFFFFFFFFFFFFFF AND MUL OR SWAP1 SSTORE POP DUP2 PUSH1 0x3 DUP2 SWAP1 SSTORE POP POP POP PUSH3 0x173 JUMP JUMPDEST PUSH1 0x0 DUP1 REVERT JUMPDEST PUSH1 0x0 DUP2 SWAP1 POP SWAP2 SWAP1 POP JUMP JUMPDEST PUSH3 0xA1 DUP2 PUSH3 0x8C JUMP JUMPDEST DUP2 EQ PUSH3 0xAD JUMPI PUSH1 0x0 DUP1 REVERT JUMPDEST POP JUMP JUMPDEST PUSH1 0x0 DUP2 MLOAD SWAP1 POP PUSH3 0xC1 DUP2 PUSH3 0x96 JUMP JUMPDEST SWAP3 SWAP2 POP POP JUMP JUMPDEST PUSH1 0x0 PUSH20 0xFFFFFFFFFFFFFFFFFFFFFFFFFFFFFFFFFFFFFFFF DUP3 AND SWAP1 POP SWAP2 SWAP1 POP JUMP JUMPDEST PUSH1 0x0 PUSH3 0xF4 DUP3 PUSH3 0xC7 JUMP JUMPDEST SWAP1 POP SWAP2 SWAP1 POP JUMP JUMPDEST PUSH3 0x106 DUP2 PUSH3 0xE7 JUMP JUMPDEST DUP2 EQ PUSH3 0x112 JUMPI PUSH1 0x0 DUP1 REVERT JUMPDEST POP JUMP JUMPDEST PUSH1 0x0 DUP2 MLOAD SWAP1 POP PUSH3 0x126 DUP2 PUSH3 0xFB JUMP JUMPDEST SWAP3 SWAP2 POP POP JUMP JUMPDEST PUSH1 0x0 DUP1 PUSH1 0x40 DUP4 DUP6 SUB SLT ISZERO PUSH3 0x146 JUMPI PUSH3 0x145 PUSH3 0x87 JUMP JUMPDEST JUMPDEST PUSH1 0x0 PUSH3 0x156 DUP6 DUP3 DUP7 ADD PUSH3 0xB0 JUMP JUMPDEST SWAP3 POP POP PUSH1 0x20 PUSH3 0x169 DUP6 DUP3 DUP7 ADD PUSH3 0x115 JUMP JUMPDEST SWAP2 POP POP SWAP3 POP SWAP3 SWAP1 POP JUMP JUMPDEST PUSH2 0x14E4 DUP1 PUSH3 0x183 PUSH1 0x0 CODECOPY PUSH1 0x0 RETURN INVALID PUSH1 0x80 PUSH1 0x40 MSTORE PUSH1 0x4 CALLDATASIZE LT PUSH2 0x9C JUMPI PUSH1 0x0 CALLDATALOAD PUSH1 0xE0 SHR DUP1 PUSH4 0x81D12C58 GT PUSH2 0x64 JUMPI DUP1 PUSH4 0x81D12C58 EQ PUSH2 0x18C JUMPI DUP1 PUSH4 0x82FDE093 EQ PUSH2 0x1CD JUMPI DUP1 PUSH4 0x8A9CFD55 EQ PUSH2 0x1F8 JUMPI DUP1 PUSH4 0x937E09B1 EQ PUSH2 0x221 JUMPI DUP1 PUSH4 0x984261AE EQ PUSH2 0x24C JUMPI DUP1 PUSH4 0xD7BB99BA EQ PUSH2 0x275 JUMPI PUSH2 0x9C JUMP JUMPDEST DUP1 PUSH4 0x3441006 EQ PUSH2 0xA1 JUMPI DUP1 PUSH4 0xA144391 EQ PUSH2 0xCA JUMPI DUP1 PUSH4 0x3FAD1834 EQ PUSH2 0x107 JUMPI DUP1 PUSH4 0x4051DDAC EQ PUSH2 0x132 JUMPI DUP1 PUSH4 0x481C6A75 EQ PUSH2 0x161 JUMPI JUMPDEST PUSH1 0x0 DUP1 REVERT JUMPDEST CALLVALUE DUP1 ISZERO PUSH2 0xAD JUMPI PUSH1 0x0 DUP1 REVERT JUMPDEST POP PUSH2 0xC8 PUSH1 0x4 DUP1 CALLDATASIZE SUB DUP2 ADD SWAP1 PUSH2 0xC3 SWAP2 SWAP1 PUSH2 0x9DC JUMP JUMPDEST PUSH2 0x27F JUMP JUMPDEST STOP JUMPDEST CALLVALUE DUP1 ISZERO PUSH2 0xD6 JUMPI PUSH1 0x0 DUP1 REVERT JUMPDEST POP PUSH2 0xF1 PUSH1 0x4 DUP1 CALLDATASIZE SUB DUP2 ADD SWAP1 PUSH2 0xEC SWAP2 SWAP1 PUSH2 0xA67 JUMP JUMPDEST PUSH2 0x45C JUMP JUMPDEST PUSH1 0x40 MLOAD PUSH2 0xFE SWAP2 SWAP1 PUSH2 0xAAF JUMP JUMPDEST PUSH1 0x40 MLOAD DUP1 SWAP2 SUB SWAP1 RETURN JUMPDEST CALLVALUE DUP1 ISZERO PUSH2 0x113 JUMPI PUSH1 0x0 DUP1 REVERT JUMPDEST POP PUSH2 0x11C PUSH2 0x47C JUMP JUMPDEST PUSH1 0x40 MLOAD PUSH2 0x129 SWAP2 SWAP1 PUSH2 0xAD9 JUMP JUMPDEST PUSH1 0x40 MLOAD DUP1 SWAP2 SUB SWAP1 RETURN JUMPDEST CALLVALUE DUP1 ISZERO PUSH2 0x13E JUMPI PUSH1 0x0 DUP1 REVERT JUMPDEST POP PUSH2 0x147 PUSH2 0x485 JUMP JUMPDEST PUSH1 0x40 MLOAD PUSH2 0x158 SWAP6 SWAP5 SWAP4 SWAP3 SWAP2 SWAP1 PUSH2 0xB03 JUMP JUMPDEST PUSH1 0x40 MLOAD DUP1 SWAP2 SUB SWAP1 RETURN JUMPDEST CALLVALUE DUP1 ISZERO PUSH2 0x16D JUMPI PUSH1 0x0 DUP1 REVERT JUMPDEST POP PUSH2 0x176 PUSH2 0x4CB JUMP JUMPDEST PUSH1 0x40 MLOAD PUSH2 0x183 SWAP2 SWAP1 PUSH2 0xB56 JUMP JUMPDEST PUSH1 0x40 MLOAD DUP1 SWAP2 SUB SWAP1 RETURN JUMPDEST CALLVALUE DUP1 ISZERO PUSH2 0x198 JUMPI PUSH1 0x0 DUP1 REVERT JUMPDEST POP PUSH2 0x1B3 PUSH1 0x4 DUP1 CALLDATASIZE SUB DUP2 ADD SWAP1 PUSH2 0x1AE SWAP2 SWAP1 PUSH2 0x9DC JUMP JUMPDEST PUSH2 0x4F1 JUMP JUMPDEST PUSH1 0x40 MLOAD PUSH2 0x1C4 SWAP6 SWAP5 SWAP4 SWAP3 SWAP2 SWAP1 PUSH2 0xC01 JUMP JUMPDEST PUSH1 0x40 MLOAD DUP1 SWAP2 SUB SWAP1 RETURN JUMPDEST CALLVALUE DUP1 ISZERO PUSH2 0x1D9 JUMPI PUSH1 0x0 DUP1 REVERT JUMPDEST POP PUSH2 0x1E2 PUSH2 0x5DC JUMP JUMPDEST PUSH1 0x40 MLOAD PUSH2 0x1EF SWAP2 SWAP1 PUSH2 0xAD9 JUMP JUMPDEST PUSH1 0x40 MLOAD DUP1 SWAP2 SUB SWAP1 RETURN JUMPDEST CALLVALUE DUP1 ISZERO PUSH2 0x204 JUMPI PUSH1 0x0 DUP1 REVERT JUMPDEST POP PUSH2 0x21F PUSH1 0x4 DUP1 CALLDATASIZE SUB DUP2 ADD SWAP1 PUSH2 0x21A SWAP2 SWAP1 PUSH2 0xD90 JUMP JUMPDEST PUSH2 0x5E2 JUMP JUMPDEST STOP JUMPDEST CALLVALUE DUP1 ISZERO PUSH2 0x22D JUMPI PUSH1 0x0 DUP1 REVERT JUMPDEST POP PUSH2 0x236 PUSH2 0x72C JUMP JUMPDEST PUSH1 0x40 MLOAD PUSH2 0x243 SWAP2 SWAP1 PUSH2 0xAD9 JUMP JUMPDEST PUSH1 0x40 MLOAD DUP1 SWAP2 SUB SWAP1 RETURN JUMPDEST CALLVALUE DUP1 ISZERO PUSH2 0x258 JUMPI PUSH1 0x0 DUP1 REVERT JUMPDEST POP PUSH2 0x273 PUSH1 0x4 DUP1 CALLDATASIZE SUB DUP2 ADD SWAP1 PUSH2 0x26E SWAP2 SWAP1 PUSH2 0x9DC JUMP JUMPDEST PUSH2 0x732 JUMP JUMPDEST STOP JUMPDEST PUSH2 0x27D PUSH2 0x8DC JUMP JUMPDEST STOP JUMPDEST PUSH1 0x2 PUSH1 0x0 SWAP1 SLOAD SWAP1 PUSH2 0x100 EXP SWAP1 DIV PUSH20 0xFFFFFFFFFFFFFFFFFFFFFFFFFFFFFFFFFFFFFFFF AND PUSH20 0xFFFFFFFFFFFFFFFFFFFFFFFFFFFFFFFFFFFFFFFF AND CALLER PUSH20 0xFFFFFFFFFFFFFFFFFFFFFFFFFFFFFFFFFFFFFFFF AND EQ PUSH2 0x30F JUMPI PUSH1 0x40 MLOAD PUSH32 0x8C379A000000000000000000000000000000000000000000000000000000000 DUP2 MSTORE PUSH1 0x4 ADD PUSH2 0x306 SWAP1 PUSH2 0xE4B JUMP JUMPDEST PUSH1 0x40 MLOAD DUP1 SWAP2 SUB SWAP1 REVERT JUMPDEST PUSH1 0x0 PUSH1 0x1 PUSH1 0x0 DUP4 DUP2 MSTORE PUSH1 0x20 ADD SWAP1 DUP2 MSTORE PUSH1 0x20 ADD PUSH1 0x0 KECCAK256 SWAP1 POP DUP1 PUSH1 0x2 ADD PUSH1 0x14 SWAP1 SLOAD SWAP1 PUSH2 0x100 EXP SWAP1 DIV PUSH1 0xFF AND ISZERO PUSH2 0x378 JUMPI PUSH1 0x40 MLOAD PUSH32 0x8C379A000000000000000000000000000000000000000000000000000000000 DUP2 MSTORE PUSH1 0x4 ADD PUSH2 0x36F SWAP1 PUSH2 0xEDD JUMP JUMPDEST PUSH1 0x40 MLOAD DUP1 SWAP2 SUB SWAP1 REVERT JUMPDEST PUSH1 0x2 PUSH1 0x5 SLOAD PUSH2 0x387 SWAP2 SWAP1 PUSH2 0xF5B JUMP JUMPDEST DUP2 PUSH1 0x3 ADD SLOAD GT PUSH2 0x3CC JUMPI PUSH1 0x40 MLOAD PUSH32 0x8C379A000000000000000000000000000000000000000000000000000000000 DUP2 MSTORE PUSH1 0x4 ADD PUSH2 0x3C3 SWAP1 PUSH2 0xFFE JUMP JUMPDEST PUSH1 0x40 MLOAD DUP1 SWAP2 SUB SWAP1 REVERT JUMPDEST DUP1 PUSH1 0x2 ADD PUSH1 0x0 SWAP1 SLOAD SWAP1 PUSH2 0x100 EXP SWAP1 DIV PUSH20 0xFFFFFFFFFFFFFFFFFFFFFFFFFFFFFFFFFFFFFFFF AND PUSH20 0xFFFFFFFFFFFFFFFFFFFFFFFFFFFFFFFFFFFFFFFF AND PUSH2 0x8FC DUP3 PUSH1 0x1 ADD SLOAD SWAP1 DUP2 ISZERO MUL SWAP1 PUSH1 0x40 MLOAD PUSH1 0x0 PUSH1 0x40 MLOAD DUP1 DUP4 SUB DUP2 DUP6 DUP9 DUP9 CALL SWAP4 POP POP POP POP ISZERO DUP1 ISZERO PUSH2 0x43A JUMPI RETURNDATASIZE PUSH1 0x0 DUP1 RETURNDATACOPY RETURNDATASIZE PUSH1 0x0 REVERT JUMPDEST POP PUSH1 0x1 DUP2 PUSH1 0x2 ADD PUSH1 0x14 PUSH2 0x100 EXP DUP2 SLOAD DUP2 PUSH1 0xFF MUL NOT AND SWAP1 DUP4 ISZERO ISZERO MUL OR SWAP1 SSTORE POP POP POP JUMP JUMPDEST PUSH1 0x4 PUSH1 0x20 MSTORE DUP1 PUSH1 0x0 MSTORE PUSH1 0x40 PUSH1 0x0 KECCAK256 PUSH1 0x0 SWAP2 POP SLOAD SWAP1 PUSH2 0x100 EXP SWAP1 DIV PUSH1 0xFF AND DUP2 JUMP JUMPDEST PUSH1 0x0 DUP1 SLOAD SWAP1 POP SWAP1 JUMP JUMPDEST PUSH1 0x0 DUP1 PUSH1 0x0 DUP1 PUSH1 0x0 PUSH1 0x3 SLOAD SELFBALANCE PUSH1 0x0 SLOAD PUSH1 0x5 SLOAD PUSH1 0x2 PUSH1 0x0 SWAP1 SLOAD SWAP1 PUSH2 0x100 EXP SWAP1 DIV PUSH20 0xFFFFFFFFFFFFFFFFFFFFFFFFFFFFFFFFFFFFFFFF AND SWAP5 POP SWAP5 POP SWAP5 POP SWAP5 POP SWAP5 POP SWAP1 SWAP2 SWAP3 SWAP4 SWAP5 JUMP JUMPDEST PUSH1 0x2 PUSH1 0x0 SWAP1 SLOAD SWAP1 PUSH2 0x100 EXP SWAP1 DIV PUSH20 0xFFFFFFFFFFFFFFFFFFFFFFFFFFFFFFFFFFFFFFFF AND DUP2 JUMP JUMPDEST PUSH1 0x1 PUSH1 0x20 MSTORE DUP1 PUSH1 0x0 MSTORE PUSH1 0x40 PUSH1 0x0 KECCAK256 PUSH1 0x0 SWAP2 POP SWAP1 POP DUP1 PUSH1 0x0 ADD DUP1 SLOAD PUSH2 0x514 SWAP1 PUSH2 0x104D JUMP JUMPDEST DUP1 PUSH1 0x1F ADD PUSH1 0x20 DUP1 SWAP2 DIV MUL PUSH1 0x20 ADD PUSH1 0x40 MLOAD SWAP1 DUP2 ADD PUSH1 0x40 MSTORE DUP1 SWAP3 SWAP2 SWAP1 DUP2 DUP2 MSTORE PUSH1 0x20 ADD DUP3 DUP1 SLOAD PUSH2 0x540 SWAP1 PUSH2 0x104D JUMP JUMPDEST DUP1 ISZERO PUSH2 0x58D JUMPI DUP1 PUSH1 0x1F LT PUSH2 0x562 JUMPI PUSH2 0x100 DUP1 DUP4 SLOAD DIV MUL DUP4 MSTORE SWAP2 PUSH1 0x20 ADD SWAP2 PUSH2 0x58D JUMP JUMPDEST DUP3 ADD SWAP2 SWAP1 PUSH1 0x0 MSTORE PUSH1 0x20 PUSH1 0x0 KECCAK256 SWAP1 JUMPDEST DUP2 SLOAD DUP2 MSTORE SWAP1 PUSH1 0x1 ADD SWAP1 PUSH1 0x20 ADD DUP1 DUP4 GT PUSH2 0x570 JUMPI DUP3 SWAP1 SUB PUSH1 0x1F AND DUP3 ADD SWAP2 JUMPDEST POP POP POP POP POP SWAP1 DUP1 PUSH1 0x1 ADD SLOAD SWAP1 DUP1 PUSH1 0x2 ADD PUSH1 0x0 SWAP1 SLOAD SWAP1 PUSH2 0x100 EXP SWAP1 DIV PUSH20 0xFFFFFFFFFFFFFFFFFFFFFFFFFFFFFFFFFFFFFFFF AND SWAP1 DUP1 PUSH1 0x2 ADD PUSH1 0x14 SWAP1 SLOAD SWAP1 PUSH2 0x100 EXP SWAP1 DIV PUSH1 0xFF AND SWAP1 DUP1 PUSH1 0x3 ADD SLOAD SWAP1 POP DUP6 JUMP JUMPDEST PUSH1 0x5 SLOAD DUP2 JUMP JUMPDEST PUSH1 0x2 PUSH1 0x0 SWAP1 SLOAD SWAP1 PUSH2 0x100 EXP SWAP1 DIV PUSH20 0xFFFFFFFFFFFFFFFFFFFFFFFFFFFFFFFFFFFFFFFF AND PUSH20 0xFFFFFFFFFFFFFFFFFFFFFFFFFFFFFFFFFFFFFFFF AND CALLER PUSH20 0xFFFFFFFFFFFFFFFFFFFFFFFFFFFFFFFFFFFFFFFF AND EQ PUSH2 0x672 JUMPI PUSH1 0x40 MLOAD PUSH32 0x8C379A000000000000000000000000000000000000000000000000000000000 DUP2 MSTORE PUSH1 0x4 ADD PUSH2 0x669 SWAP1 PUSH2 0xE4B JUMP JUMPDEST PUSH1 0x40 MLOAD DUP1 SWAP2 SUB SWAP1 REVERT JUMPDEST PUSH1 0x0 PUSH1 0x1 PUSH1 0x0 DUP1 SLOAD DUP2 MSTORE PUSH1 0x20 ADD SWAP1 DUP2 MSTORE PUSH1 0x20 ADD PUSH1 0x0 KECCAK256 SWAP1 POP DUP4 DUP2 PUSH1 0x0 ADD SWAP1 DUP2 PUSH2 0x69B SWAP2 SWAP1 PUSH2 0x122A JUMP JUMPDEST POP DUP3 DUP2 PUSH1 0x1 ADD DUP2 SWAP1 SSTORE POP DUP2 DUP2 PUSH1 0x2 ADD PUSH1 0x0 PUSH2 0x100 EXP DUP2 SLOAD DUP2 PUSH20 0xFFFFFFFFFFFFFFFFFFFFFFFFFFFFFFFFFFFFFFFF MUL NOT AND SWAP1 DUP4 PUSH20 0xFFFFFFFFFFFFFFFFFFFFFFFFFFFFFFFFFFFFFFFF AND MUL OR SWAP1 SSTORE POP PUSH1 0x0 DUP2 PUSH1 0x2 ADD PUSH1 0x14 PUSH2 0x100 EXP DUP2 SLOAD DUP2 PUSH1 0xFF MUL NOT AND SWAP1 DUP4 ISZERO ISZERO MUL OR SWAP1 SSTORE POP PUSH1 0x0 DUP2 PUSH1 0x3 ADD DUP2 SWAP1 SSTORE POP PUSH1 0x0 DUP1 DUP2 SLOAD DUP1 SWAP3 SWAP2 SWAP1 PUSH2 0x721 SWAP1 PUSH2 0x12FC JUMP JUMPDEST SWAP2 SWAP1 POP SSTORE POP POP POP POP POP JUMP JUMPDEST PUSH1 0x3 SLOAD DUP2 JUMP JUMPDEST PUSH1 0x0 PUSH1 0x1 PUSH1 0x0 DUP4 DUP2 MSTORE PUSH1 0x20 ADD SWAP1 DUP2 MSTORE PUSH1 0x20 ADD PUSH1 0x0 KECCAK256 SWAP1 POP PUSH1 0x4 PUSH1 0x0 CALLER PUSH20 0xFFFFFFFFFFFFFFFFFFFFFFFFFFFFFFFFFFFFFFFF AND PUSH20 0xFFFFFFFFFFFFFFFFFFFFFFFFFFFFFFFFFFFFFFFF AND DUP2 MSTORE PUSH1 0x20 ADD SWAP1 DUP2 MSTORE PUSH1 0x20 ADD PUSH1 0x0 KECCAK256 PUSH1 0x0 SWAP1 SLOAD SWAP1 PUSH2 0x100 EXP SWAP1 DIV PUSH1 0xFF AND PUSH2 0x7D5 JUMPI PUSH1 0x40 MLOAD PUSH32 0x8C379A000000000000000000000000000000000000000000000000000000000 DUP2 MSTORE PUSH1 0x4 ADD PUSH2 0x7CC SWAP1 PUSH2 0x1390 JUMP JUMPDEST PUSH1 0x40 MLOAD DUP1 SWAP2 SUB SWAP1 REVERT JUMPDEST DUP1 PUSH1 0x4 ADD PUSH1 0x0 CALLER PUSH20 0xFFFFFFFFFFFFFFFFFFFFFFFFFFFFFFFFFFFFFFFF AND PUSH20 0xFFFFFFFFFFFFFFFFFFFFFFFFFFFFFFFFFFFFFFFF AND DUP2 MSTORE PUSH1 0x20 ADD SWAP1 DUP2 MSTORE PUSH1 0x20 ADD PUSH1 0x0 KECCAK256 PUSH1 0x0 SWAP1 SLOAD SWAP1 PUSH2 0x100 EXP SWAP1 DIV PUSH1 0xFF AND ISZERO PUSH2 0x864 JUMPI PUSH1 0x40 MLOAD PUSH32 0x8C379A000000000000000000000000000000000000000000000000000000000 DUP2 MSTORE PUSH1 0x4 ADD PUSH2 0x85B SWAP1 PUSH2 0x1422 JUMP JUMPDEST PUSH1 0x40 MLOAD DUP1 SWAP2 SUB SWAP1 REVERT JUMPDEST PUSH1 0x1 DUP2 PUSH1 0x4 ADD PUSH1 0x0 CALLER PUSH20 0xFFFFFFFFFFFFFFFFFFFFFFFFFFFFFFFFFFFFFFFF AND PUSH20 0xFFFFFFFFFFFFFFFFFFFFFFFFFFFFFFFFFFFFFFFF AND DUP2 MSTORE PUSH1 0x20 ADD SWAP1 DUP2 MSTORE PUSH1 0x20 ADD PUSH1 0x0 KECCAK256 PUSH1 0x0 PUSH2 0x100 EXP DUP2 SLOAD DUP2 PUSH1 0xFF MUL NOT AND SWAP1 DUP4 ISZERO ISZERO MUL OR SWAP1 SSTORE POP DUP1 PUSH1 0x3 ADD PUSH1 0x0 DUP2 SLOAD DUP1 SWAP3 SWAP2 SWAP1 PUSH2 0x8D3 SWAP1 PUSH2 0x12FC JUMP JUMPDEST SWAP2 SWAP1 POP SSTORE POP POP POP JUMP JUMPDEST PUSH1 0x3 SLOAD CALLVALUE GT PUSH2 0x920 JUMPI PUSH1 0x40 MLOAD PUSH32 0x8C379A000000000000000000000000000000000000000000000000000000000 DUP2 MSTORE PUSH1 0x4 ADD PUSH2 0x917 SWAP1 PUSH2 0x148E JUMP JUMPDEST PUSH1 0x40 MLOAD DUP1 SWAP2 SUB SWAP1 REVERT JUMPDEST PUSH1 0x1 PUSH1 0x4 PUSH1 0x0 CALLER PUSH20 0xFFFFFFFFFFFFFFFFFFFFFFFFFFFFFFFFFFFFFFFF AND PUSH20 0xFFFFFFFFFFFFFFFFFFFFFFFFFFFFFFFFFFFFFFFF AND DUP2 MSTORE PUSH1 0x20 ADD SWAP1 DUP2 MSTORE PUSH1 0x20 ADD PUSH1 0x0 KECCAK256 PUSH1 0x0 PUSH2 0x100 EXP DUP2 SLOAD DUP2 PUSH1 0xFF MUL NOT AND SWAP1 DUP4 ISZERO ISZERO MUL OR SWAP1 SSTORE POP PUSH1 0x5 PUSH1 0x0 DUP2 SLOAD DUP1 SWAP3 SWAP2 SWAP1 PUSH2 0x98B SWAP1 PUSH2 0x12FC JUMP JUMPDEST SWAP2 SWAP1 POP SSTORE POP JUMP JUMPDEST PUSH1 0x0 PUSH1 0x40 MLOAD SWAP1 POP SWAP1 JUMP JUMPDEST PUSH1 0x0 DUP1 REVERT JUMPDEST PUSH1 0x0 DUP1 REVERT JUMPDEST PUSH1 0x0 DUP2 SWAP1 POP SWAP2 SWAP1 POP JUMP JUMPDEST PUSH2 0x9B9 DUP2 PUSH2 0x9A6 JUMP JUMPDEST DUP2 EQ PUSH2 0x9C4 JUMPI PUSH1 0x0 DUP1 REVERT JUMPDEST POP JUMP JUMPDEST PUSH1 0x0 DUP2 CALLDATALOAD SWAP1 POP PUSH2 0x9D6 DUP2 PUSH2 0x9B0 JUMP JUMPDEST SWAP3 SWAP2 POP POP JUMP JUMPDEST PUSH1 0x0 PUSH1 0x20 DUP3 DUP5 SUB SLT ISZERO PUSH2 0x9F2 JUMPI PUSH2 0x9F1 PUSH2 0x99C JUMP JUMPDEST JUMPDEST PUSH1 0x0 PUSH2 0xA00 DUP5 DUP3 DUP6 ADD PUSH2 0x9C7 JUMP JUMPDEST SWAP2 POP POP SWAP3 SWAP2 POP POP JUMP JUMPDEST PUSH1 0x0 PUSH20 0xFFFFFFFFFFFFFFFFFFFFFFFFFFFFFFFFFFFFFFFF DUP3 AND SWAP1 POP SWAP2 SWAP1 POP JUMP JUMPDEST PUSH1 0x0 PUSH2 0xA34 DUP3 PUSH2 0xA09 JUMP JUMPDEST SWAP1 POP SWAP2 SWAP1 POP JUMP JUMPDEST PUSH2 0xA44 DUP2 PUSH2 0xA29 JUMP JUMPDEST DUP2 EQ PUSH2 0xA4F JUMPI PUSH1 0x0 DUP1 REVERT JUMPDEST POP JUMP JUMPDEST PUSH1 0x0 DUP2 CALLDATALOAD SWAP1 POP PUSH2 0xA61 DUP2 PUSH2 0xA3B JUMP JUMPDEST SWAP3 SWAP2 POP POP JUMP JUMPDEST PUSH1 0x0 PUSH1 0x20 DUP3 DUP5 SUB SLT ISZERO PUSH2 0xA7D JUMPI PUSH2 0xA7C PUSH2 0x99C JUMP JUMPDEST JUMPDEST PUSH1 0x0 PUSH2 0xA8B DUP5 DUP3 DUP6 ADD PUSH2 0xA52 JUMP JUMPDEST SWAP2 POP POP SWAP3 SWAP2 POP POP JUMP JUMPDEST PUSH1 0x0 DUP2 ISZERO ISZERO SWAP1 POP SWAP2 SWAP1 POP JUMP JUMPDEST PUSH2 0xAA9 DUP2 PUSH2 0xA94 JUMP JUMPDEST DUP3 MSTORE POP POP JUMP JUMPDEST PUSH1 0x0 PUSH1 0x20 DUP3 ADD SWAP1 POP PUSH2 0xAC4 PUSH1 0x0 DUP4 ADD DUP5 PUSH2 0xAA0 JUMP JUMPDEST SWAP3 SWAP2 POP POP JUMP JUMPDEST PUSH2 0xAD3 DUP2 PUSH2 0x9A6 JUMP JUMPDEST DUP3 MSTORE POP POP JUMP JUMPDEST PUSH1 0x0 PUSH1 0x20 DUP3 ADD SWAP1 POP PUSH2 0xAEE PUSH1 0x0 DUP4 ADD DUP5 PUSH2 0xACA JUMP JUMPDEST SWAP3 SWAP2 POP POP JUMP JUMPDEST PUSH2 0xAFD DUP2 PUSH2 0xA29 JUMP JUMPDEST DUP3 MSTORE POP POP JUMP JUMPDEST PUSH1 0x0 PUSH1 0xA0 DUP3 ADD SWAP1 POP PUSH2 0xB18 PUSH1 0x0 DUP4 ADD DUP9 PUSH2 0xACA JUMP JUMPDEST PUSH2 0xB25 PUSH1 0x20 DUP4 ADD DUP8 PUSH2 0xACA JUMP JUMPDEST PUSH2 0xB32 PUSH1 0x40 DUP4 ADD DUP7 PUSH2 0xACA JUMP JUMPDEST PUSH2 0xB3F PUSH1 0x60 DUP4 ADD DUP6 PUSH2 0xACA JUMP JUMPDEST PUSH2 0xB4C PUSH1 0x80 DUP4 ADD DUP5 PUSH2 0xAF4 JUMP JUMPDEST SWAP7 SWAP6 POP POP POP POP POP POP JUMP JUMPDEST PUSH1 0x0 PUSH1 0x20 DUP3 ADD SWAP1 POP PUSH2 0xB6B PUSH1 0x0 DUP4 ADD DUP5 PUSH2 0xAF4 JUMP JUMPDEST SWAP3 SWAP2 POP POP JUMP JUMPDEST PUSH1 0x0 DUP2 MLOAD SWAP1 POP SWAP2 SWAP1 POP JUMP JUMPDEST PUSH1 0x0 DUP3 DUP3 MSTORE PUSH1 0x20 DUP3 ADD SWAP1 POP SWAP3 SWAP2 POP POP JUMP JUMPDEST PUSH1 0x0 JUMPDEST DUP4 DUP2 LT ISZERO PUSH2 0xBAB JUMPI DUP1 DUP3 ADD MLOAD DUP2 DUP5 ADD MSTORE PUSH1 0x20 DUP2 ADD SWAP1 POP PUSH2 0xB90 JUMP JUMPDEST PUSH1 0x0 DUP5 DUP5 ADD MSTORE POP POP POP POP JUMP JUMPDEST PUSH1 0x0 PUSH1 0x1F NOT PUSH1 0x1F DUP4 ADD AND SWAP1 POP SWAP2 SWAP1 POP JUMP JUMPDEST PUSH1 0x0 PUSH2 0xBD3 DUP3 PUSH2 0xB71 JUMP JUMPDEST PUSH2 0xBDD DUP2 DUP6 PUSH2 0xB7C JUMP JUMPDEST SWAP4 POP PUSH2 0xBED DUP2 DUP6 PUSH1 0x20 DUP7 ADD PUSH2 0xB8D JUMP JUMPDEST PUSH2 0xBF6 DUP2 PUSH2 0xBB7 JUMP JUMPDEST DUP5 ADD SWAP2 POP POP SWAP3 SWAP2 POP POP JUMP JUMPDEST PUSH1 0x0 PUSH1 0xA0 DUP3 ADD SWAP1 POP DUP2 DUP2 SUB PUSH1 0x0 DUP4 ADD MSTORE PUSH2 0xC1B DUP2 DUP9 PUSH2 0xBC8 JUMP JUMPDEST SWAP1 POP PUSH2 0xC2A PUSH1 0x20 DUP4 ADD DUP8 PUSH2 0xACA JUMP JUMPDEST PUSH2 0xC37 PUSH1 0x40 DUP4 ADD DUP7 PUSH2 0xAF4 JUMP JUMPDEST PUSH2 0xC44 PUSH1 0x60 DUP4 ADD DUP6 PUSH2 0xAA0 JUMP JUMPDEST PUSH2 0xC51 PUSH1 0x80 DUP4 ADD DUP5 PUSH2 0xACA JUMP JUMPDEST SWAP7 SWAP6 POP POP POP POP POP POP JUMP JUMPDEST PUSH1 0x0 DUP1 REVERT JUMPDEST PUSH1 0x0 DUP1 REVERT JUMPDEST PUSH32 0x4E487B7100000000000000000000000000000000000000000000000000000000 PUSH1 0x0 MSTORE PUSH1 0x41 PUSH1 0x4 MSTORE PUSH1 0x24 PUSH1 0x0 REVERT JUMPDEST PUSH2 0xC9D DUP3 PUSH2 0xBB7 JUMP JUMPDEST DUP2 ADD DUP2 DUP2 LT PUSH8 0xFFFFFFFFFFFFFFFF DUP3 GT OR ISZERO PUSH2 0xCBC JUMPI PUSH2 0xCBB PUSH2 0xC65 JUMP JUMPDEST JUMPDEST DUP1 PUSH1 0x40 MSTORE POP POP POP JUMP JUMPDEST PUSH1 0x0 PUSH2 0xCCF PUSH2 0x992 JUMP JUMPDEST SWAP1 POP PUSH2 0xCDB DUP3 DUP3 PUSH2 0xC94 JUMP JUMPDEST SWAP2 SWAP1 POP JUMP JUMPDEST PUSH1 0x0 PUSH8 0xFFFFFFFFFFFFFFFF DUP3 GT ISZERO PUSH2 0xCFB JUMPI PUSH2 0xCFA PUSH2 0xC65 JUMP JUMPDEST JUMPDEST PUSH2 0xD04 DUP3 PUSH2 0xBB7 JUMP JUMPDEST SWAP1 POP PUSH1 0x20 DUP2 ADD SWAP1 POP SWAP2 SWAP1 POP JUMP JUMPDEST DUP3 DUP2 DUP4 CALLDATACOPY PUSH1 0x0 DUP4 DUP4 ADD MSTORE POP POP POP JUMP JUMPDEST PUSH1 0x0 PUSH2 0xD33 PUSH2 0xD2E DUP5 PUSH2 0xCE0 JUMP JUMPDEST PUSH2 0xCC5 JUMP JUMPDEST SWAP1 POP DUP3 DUP2 MSTORE PUSH1 0x20 DUP2 ADD DUP5 DUP5 DUP5 ADD GT ISZERO PUSH2 0xD4F JUMPI PUSH2 0xD4E PUSH2 0xC60 JUMP JUMPDEST JUMPDEST PUSH2 0xD5A DUP5 DUP3 DUP6 PUSH2 0xD11 JUMP JUMPDEST POP SWAP4 SWAP3 POP POP POP JUMP JUMPDEST PUSH1 0x0 DUP3 PUSH1 0x1F DUP4 ADD SLT PUSH2 0xD77 JUMPI PUSH2 0xD76 PUSH2 0xC5B JUMP JUMPDEST JUMPDEST DUP2 CALLDATALOAD PUSH2 0xD87 DUP5 DUP3 PUSH1 0x20 DUP7 ADD PUSH2 0xD20 JUMP JUMPDEST SWAP2 POP POP SWAP3 SWAP2 POP POP JUMP JUMPDEST PUSH1 0x0 DUP1 PUSH1 0x0 PUSH1 0x60 DUP5 DUP7 SUB SLT ISZERO PUSH2 0xDA9 JUMPI PUSH2 0xDA8 PUSH2 0x99C JUMP JUMPDEST JUMPDEST PUSH1 0x0 DUP5 ADD CALLDATALOAD PUSH8 0xFFFFFFFFFFFFFFFF DUP2 GT ISZERO PUSH2 0xDC7 JUMPI PUSH2 0xDC6 PUSH2 0x9A1 JUMP JUMPDEST JUMPDEST PUSH2 0xDD3 DUP7 DUP3 DUP8 ADD PUSH2 0xD62 JUMP JUMPDEST SWAP4 POP POP PUSH1 0x20 PUSH2 0xDE4 DUP7 DUP3 DUP8 ADD PUSH2 0x9C7 JUMP JUMPDEST SWAP3 POP POP PUSH1 0x40 PUSH2 0xDF5 DUP7 DUP3 DUP8 ADD PUSH2 0xA52 JUMP JUMPDEST SWAP2 POP POP SWAP3 POP SWAP3 POP SWAP3 JUMP JUMPDEST PUSH32 0x596F75277265206E6F7420746865206D616E6167657200000000000000000000 PUSH1 0x0 DUP3 ADD MSTORE POP JUMP JUMPDEST PUSH1 0x0 PUSH2 0xE35 PUSH1 0x16 DUP4 PUSH2 0xB7C JUMP JUMPDEST SWAP2 POP PUSH2 0xE40 DUP3 PUSH2 0xDFF JUMP JUMPDEST PUSH1 0x20 DUP3 ADD SWAP1 POP SWAP2 SWAP1 POP JUMP JUMPDEST PUSH1 0x0 PUSH1 0x20 DUP3 ADD SWAP1 POP DUP2 DUP2 SUB PUSH1 0x0 DUP4 ADD MSTORE PUSH2 0xE64 DUP2 PUSH2 0xE28 JUMP JUMPDEST SWAP1 POP SWAP2 SWAP1 POP JUMP JUMPDEST PUSH32 0x546865207265717565737420697320616C7265616479206D61726B6564206173 PUSH1 0x0 DUP3 ADD MSTORE PUSH32 0x20636F6D706C6574656400000000000000000000000000000000000000000000 PUSH1 0x20 DUP3 ADD MSTORE POP JUMP JUMPDEST PUSH1 0x0 PUSH2 0xEC7 PUSH1 0x2A DUP4 PUSH2 0xB7C JUMP JUMPDEST SWAP2 POP PUSH2 0xED2 DUP3 PUSH2 0xE6B JUMP JUMPDEST PUSH1 0x40 DUP3 ADD SWAP1 POP SWAP2 SWAP1 POP JUMP JUMPDEST PUSH1 0x0 PUSH1 0x20 DUP3 ADD SWAP1 POP DUP2 DUP2 SUB PUSH1 0x0 DUP4 ADD MSTORE PUSH2 0xEF6 DUP2 PUSH2 0xEBA JUMP JUMPDEST SWAP1 POP SWAP2 SWAP1 POP JUMP JUMPDEST PUSH32 0x4E487B7100000000000000000000000000000000000000000000000000000000 PUSH1 0x0 MSTORE PUSH1 0x12 PUSH1 0x4 MSTORE PUSH1 0x24 PUSH1 0x0 REVERT JUMPDEST PUSH32 0x4E487B7100000000000000000000000000000000000000000000000000000000 PUSH1 0x0 MSTORE PUSH1 0x11 PUSH1 0x4 MSTORE PUSH1 0x24 PUSH1 0x0 REVERT JUMPDEST PUSH1 0x0 PUSH2 0xF66 DUP3 PUSH2 0x9A6 JUMP JUMPDEST SWAP2 POP PUSH2 0xF71 DUP4 PUSH2 0x9A6 JUMP JUMPDEST SWAP3 POP DUP3 PUSH2 0xF81 JUMPI PUSH2 0xF80 PUSH2 0xEFD JUMP JUMPDEST JUMPDEST DUP3 DUP3 DIV SWAP1 POP SWAP3 SWAP2 POP POP JUMP JUMPDEST PUSH32 0x596F7520646F6E2774206861766520656E6F75676820617070726F7665727320 PUSH1 0x0 DUP3 ADD MSTORE PUSH32 0x7965740000000000000000000000000000000000000000000000000000000000 PUSH1 0x20 DUP3 ADD MSTORE POP JUMP JUMPDEST PUSH1 0x0 PUSH2 0xFE8 PUSH1 0x23 DUP4 PUSH2 0xB7C JUMP JUMPDEST SWAP2 POP PUSH2 0xFF3 DUP3 PUSH2 0xF8C JUMP JUMPDEST PUSH1 0x40 DUP3 ADD SWAP1 POP SWAP2 SWAP1 POP JUMP JUMPDEST PUSH1 0x0 PUSH1 0x20 DUP3 ADD SWAP1 POP DUP2 DUP2 SUB PUSH1 0x0 DUP4 ADD MSTORE PUSH2 0x1017 DUP2 PUSH2 0xFDB JUMP JUMPDEST SWAP1 POP SWAP2 SWAP1 POP JUMP JUMPDEST PUSH32 0x4E487B7100000000000000000000000000000000000000000000000000000000 PUSH1 0x0 MSTORE PUSH1 0x22 PUSH1 0x4 MSTORE PUSH1 0x24 PUSH1 0x0 REVERT JUMPDEST PUSH1 0x0 PUSH1 0x2 DUP3 DIV SWAP1 POP PUSH1 0x1 DUP3 AND DUP1 PUSH2 0x1065 JUMPI PUSH1 0x7F DUP3 AND SWAP2 POP JUMPDEST PUSH1 0x20 DUP3 LT DUP2 SUB PUSH2 0x1078 JUMPI PUSH2 0x1077 PUSH2 0x101E JUMP JUMPDEST JUMPDEST POP SWAP2 SWAP1 POP JUMP JUMPDEST PUSH1 0x0 DUP2 SWAP1 POP DUP2 PUSH1 0x0 MSTORE PUSH1 0x20 PUSH1 0x0 KECCAK256 SWAP1 POP SWAP2 SWAP1 POP JUMP JUMPDEST PUSH1 0x0 PUSH1 0x20 PUSH1 0x1F DUP4 ADD DIV SWAP1 POP SWAP2 SWAP1 POP JUMP JUMPDEST PUSH1 0x0 DUP3 DUP3 SHL SWAP1 POP SWAP3 SWAP2 POP POP JUMP JUMPDEST PUSH1 0x0 PUSH1 0x8 DUP4 MUL PUSH2 0x10E0 PUSH32 0xFFFFFFFFFFFFFFFFFFFFFFFFFFFFFFFFFFFFFFFFFFFFFFFFFFFFFFFFFFFFFFFF DUP3 PUSH2 0x10A3 JUMP JUMPDEST PUSH2 0x10EA DUP7 DUP4 PUSH2 0x10A3 JUMP JUMPDEST SWAP6 POP DUP1 NOT DUP5 AND SWAP4 POP DUP1 DUP7 AND DUP5 OR SWAP3 POP POP POP SWAP4 SWAP3 POP POP POP JUMP JUMPDEST PUSH1 0x0 DUP2 SWAP1 POP SWAP2 SWAP1 POP JUMP JUMPDEST PUSH1 0x0 PUSH2 0x1127 PUSH2 0x1122 PUSH2 0x111D DUP5 PUSH2 0x9A6 JUMP JUMPDEST PUSH2 0x1102 JUMP JUMPDEST PUSH2 0x9A6 JUMP JUMPDEST SWAP1 POP SWAP2 SWAP1 POP JUMP JUMPDEST PUSH1 0x0 DUP2 SWAP1 POP SWAP2 SWAP1 POP JUMP JUMPDEST PUSH2 0x1141 DUP4 PUSH2 0x110C JUMP JUMPDEST PUSH2 0x1155 PUSH2 0x114D DUP3 PUSH2 0x112E JUMP JUMPDEST DUP5 DUP5 SLOAD PUSH2 0x10B0 JUMP JUMPDEST DUP3 SSTORE POP POP POP POP JUMP JUMPDEST PUSH1 0x0 SWAP1 JUMP JUMPDEST PUSH2 0x116A PUSH2 0x115D JUMP JUMPDEST PUSH2 0x1175 DUP2 DUP5 DUP5 PUSH2 0x1138 JUMP JUMPDEST POP POP POP JUMP JUMPDEST JUMPDEST DUP2 DUP2 LT ISZERO PUSH2 0x1199 JUMPI PUSH2 0x118E PUSH1 0x0 DUP3 PUSH2 0x1162 JUMP JUMPDEST PUSH1 0x1 DUP2 ADD SWAP1 POP PUSH2 0x117B JUMP JUMPDEST POP POP JUMP JUMPDEST PUSH1 0x1F DUP3 GT ISZERO PUSH2 0x11DE JUMPI PUSH2 0x11AF DUP2 PUSH2 0x107E JUMP JUMPDEST PUSH2 0x11B8 DUP5 PUSH2 0x1093 JUMP JUMPDEST DUP2 ADD PUSH1 0x20 DUP6 LT ISZERO PUSH2 0x11C7 JUMPI DUP2 SWAP1 POP JUMPDEST PUSH2 0x11DB PUSH2 0x11D3 DUP6 PUSH2 0x1093 JUMP JUMPDEST DUP4 ADD DUP3 PUSH2 0x117A JUMP JUMPDEST POP POP JUMPDEST POP POP POP JUMP JUMPDEST PUSH1 0x0 DUP3 DUP3 SHR SWAP1 POP SWAP3 SWAP2 POP POP JUMP JUMPDEST PUSH1 0x0 PUSH2 0x1201 PUSH1 0x0 NOT DUP5 PUSH1 0x8 MUL PUSH2 0x11E3 JUMP JUMPDEST NOT DUP1 DUP4 AND SWAP2 POP POP SWAP3 SWAP2 POP POP JUMP JUMPDEST PUSH1 0x0 PUSH2 0x121A DUP4 DUP4 PUSH2 0x11F0 JUMP JUMPDEST SWAP2 POP DUP3 PUSH1 0x2 MUL DUP3 OR SWAP1 POP SWAP3 SWAP2 POP POP JUMP JUMPDEST PUSH2 0x1233 DUP3 PUSH2 0xB71 JUMP JUMPDEST PUSH8 0xFFFFFFFFFFFFFFFF DUP2 GT ISZERO PUSH2 0x124C JUMPI PUSH2 0x124B PUSH2 0xC65 JUMP JUMPDEST JUMPDEST PUSH2 0x1256 DUP3 SLOAD PUSH2 0x104D JUMP JUMPDEST PUSH2 0x1261 DUP3 DUP3 DUP6 PUSH2 0x119D JUMP JUMPDEST PUSH1 0x0 PUSH1 0x20 SWAP1 POP PUSH1 0x1F DUP4 GT PUSH1 0x1 DUP2 EQ PUSH2 0x1294 JUMPI PUSH1 0x0 DUP5 ISZERO PUSH2 0x1282 JUMPI DUP3 DUP8 ADD MLOAD SWAP1 POP JUMPDEST PUSH2 0x128C DUP6 DUP3 PUSH2 0x120E JUMP JUMPDEST DUP7 SSTORE POP PUSH2 0x12F4 JUMP JUMPDEST PUSH1 0x1F NOT DUP5 AND PUSH2 0x12A2 DUP7 PUSH2 0x107E JUMP JUMPDEST PUSH1 0x0 JUMPDEST DUP3 DUP2 LT ISZERO PUSH2 0x12CA JUMPI DUP5 DUP10 ADD MLOAD DUP3 SSTORE PUSH1 0x1 DUP3 ADD SWAP2 POP PUSH1 0x20 DUP6 ADD SWAP5 POP PUSH1 0x20 DUP2 ADD SWAP1 POP PUSH2 0x12A5 JUMP JUMPDEST DUP7 DUP4 LT ISZERO PUSH2 0x12E7 JUMPI DUP5 DUP10 ADD MLOAD PUSH2 0x12E3 PUSH1 0x1F DUP10 AND DUP3 PUSH2 0x11F0 JUMP JUMPDEST DUP4 SSTORE POP JUMPDEST PUSH1 0x1 PUSH1 0x2 DUP9 MUL ADD DUP9 SSTORE POP POP POP JUMPDEST POP POP POP POP POP POP JUMP JUMPDEST PUSH1 0x0 PUSH2 0x1307 DUP3 PUSH2 0x9A6 JUMP JUMPDEST SWAP2 POP PUSH32 0xFFFFFFFFFFFFFFFFFFFFFFFFFFFFFFFFFFFFFFFFFFFFFFFFFFFFFFFFFFFFFFFF DUP3 SUB PUSH2 0x1339 JUMPI PUSH2 0x1338 PUSH2 0xF2C JUMP JUMPDEST JUMPDEST PUSH1 0x1 DUP3 ADD SWAP1 POP SWAP2 SWAP1 POP JUMP JUMPDEST PUSH32 0x596F7520617265206E6F74206120646F6E61746F720000000000000000000000 PUSH1 0x0 DUP3 ADD MSTORE POP JUMP JUMPDEST PUSH1 0x0 PUSH2 0x137A PUSH1 0x15 DUP4 PUSH2 0xB7C JUMP JUMPDEST SWAP2 POP PUSH2 0x1385 DUP3 PUSH2 0x1344 JUMP JUMPDEST PUSH1 0x20 DUP3 ADD SWAP1 POP SWAP2 SWAP1 POP JUMP JUMPDEST PUSH1 0x0 PUSH1 0x20 DUP3 ADD SWAP1 POP DUP2 DUP2 SUB PUSH1 0x0 DUP4 ADD MSTORE PUSH2 0x13A9 DUP2 PUSH2 0x136D JUMP JUMPDEST SWAP1 POP SWAP2 SWAP1 POP JUMP JUMPDEST PUSH32 0x596F7520616C726561647920766F746564206F6E207468697320726571756573 PUSH1 0x0 DUP3 ADD MSTORE PUSH32 0x7400000000000000000000000000000000000000000000000000000000000000 PUSH1 0x20 DUP3 ADD MSTORE POP JUMP JUMPDEST PUSH1 0x0 PUSH2 0x140C PUSH1 0x21 DUP4 PUSH2 0xB7C JUMP JUMPDEST SWAP2 POP PUSH2 0x1417 DUP3 PUSH2 0x13B0 JUMP JUMPDEST PUSH1 0x40 DUP3 ADD SWAP1 POP SWAP2 SWAP1 POP JUMP JUMPDEST PUSH1 0x0 PUSH1 0x20 DUP3 ADD SWAP1 POP DUP2 DUP2 SUB PUSH1 0x0 DUP4 ADD MSTORE PUSH2 0x143B DUP2 PUSH2 0x13FF JUMP JUMPDEST SWAP1 POP SWAP2 SWAP1 POP JUMP JUMPDEST PUSH32 0x546F6F206C6F7720636F6E747269627574696F6E000000000000000000000000 PUSH1 0x0 DUP3 ADD MSTORE POP JUMP JUMPDEST PUSH1 0x0 PUSH2 0x1478 PUSH1 0x14 DUP4 PUSH2 0xB7C JUMP JUMPDEST SWAP2 POP PUSH2 0x1483 DUP3 PUSH2 0x1442 JUMP JUMPDEST PUSH1 0x20 DUP3 ADD SWAP1 POP SWAP2 SWAP1 POP JUMP JUMPDEST PUSH1 0x0 PUSH1 0x20 DUP3 ADD SWAP1 POP DUP2 DUP2 SUB PUSH1 0x0 DUP4 ADD MSTORE PUSH2 0x14A7 DUP2 PUSH2 0x146B JUMP JUMPDEST SWAP1 POP SWAP2 SWAP1 POP JUMP INVALID LOG2 PUSH5 0x6970667358 0x22 SLT KECCAK256 STOP SELFBALANCE 0xE5 PUSH10 0xD4BB37036944449A5ACA CREATE SWAP11 DUP5 0xC5 SWAP15 SWAP5 SWAP10 KECCAK256 GASPRICE PUSH20 0x6E61F297D25062A764736F6C6343000811003300 "},"gasEstimates":{"creation":{"codeDepositCost":"1069600","executionCost":"infinite","totalCost":"infinite"},"external":{"approbeRequest(uint256)":"infinite","approvers(address)":"2868","approversCount()":"2451","contribute()":"51065","createRequest(string,uint256,address)":"infinite","finalizeRequest(uint256)":"infinite","getRequestCount()":"2482","getSummary()":"infinite","manager()":"2603","minimumContribution()":"2495","requests(uint256)":"infinite"}},"methodIdentifiers":{"approbeRequest(uint256)":"984261ae","approvers(address)":"0a144391","approversCount()":"82fde093","contribute()":"d7bb99ba","createRequest(string,uint256,address)":"8a9cfd55","finalizeRequest(uint256)":"03441006","getRequestCount()":"3fad1834","getSummary()":"4051ddac","manager()":"481c6a75","minimumContribution()":"937e09b1","requests(uint256)":"81d12c58"}},"storageLayout":{"storage":[{"astId":61,"contract":"Campaign.sol:Campaign","label":"numRequests","offset":0,"slot":"0","type":"t_uint256"},{"astId":66,"contract":"Campaign.sol:Campaign","label":"requests","offset":0,"slot":"1","type":"t_mapping(t_uint256,t_struct(Request)59_storage)"},{"astId":68,"contract":"Campaign.sol:Campaign","label":"manager","offset":0,"slot":"2","type":"t_address"},{"astId":70,"contract":"Campaign.sol:Campaign","label":"minimumContribution","offset":0,"slot":"3","type":"t_uint256"},{"astId":74,"contract":"Campaign.sol:Campaign","label":"approvers","offset":0,"slot":"4","type":"t_mapping(t_address,t_bool)"},{"astId":76,"contract":"Campaign.sol:Campaign","label":"approversCount","offset":0,"slot":"5","type":"t_uint256"}],"types":{"t_address":{"encoding":"inplace","label":"address","numberOfBytes":"20"},"t_bool":{"encoding":"inplace","label":"bool","numberOfBytes":"1"},"t_mapping(t_address,t_bool)":{"encoding":"mapping","key":"t_address","label":"mapping(address => bool)","numberOfBytes":"32","value":"t_bool"},"t_mapping(t_uint256,t_struct(Request)59_storage)":{"encoding":"mapping","key":"t_uint256","label":"mapping(uint256 => struct Campaign.Request)","numberOfBytes":"32","value":"t_struct(Request)59_storage"},"t_string_storage":{"encoding":"bytes","label":"string","numberOfBytes":"32"},"t_struct(Request)59_storage":{"encoding":"inplace","label":"struct Campaign.Request","members":[{"astId":46,"contract":"Campaign.sol:Campaign","label":"description","offset":0,"slot":"0","type":"t_string_storage"},{"astId":48,"contract":"Campaign.sol:Campaign","label":"value","offset":0,"slot":"1","type":"t_uint256"},{"astId":50,"contract":"Campaign.sol:Campaign","label":"recipient","offset":0,"slot":"2","type":"t_address"},{"astId":52,"contract":"Campaign.sol:Campaign","label":"complete","offset":20,"slot":"2","type":"t_bool"},{"astId":54,"contract":"Campaign.sol:Campaign","label":"approvalCount","offset":0,"slot":"3","type":"t_uint256"},{"astId":58,"contract":"Campaign.sol:Campaign","label":"approvals","offset":0,"slot":"4","type":"t_mapping(t_address,t_bool)"}],"numberOfBytes":"160"},"t_uint256":{"encoding":"inplace","label":"uint256","numberOfBytes":"32"}}},"userdoc":{"kind":"user","methods":{},"version":1}}